:100000000C942A000C943F000C943F000C943F0089
:100010000C943F000C943F000C943F000C943F0064
:100020000C943F000C943F000C943F000C943F0054
:100030000C943F000C943F000C943F000C943F0044
:100040000C943F000C943F000C943F000C943F0034
:100050000C943F0011241FBECFE5D8E0DEBFCDBF1A
:1000600010E0A0E6B0E0EAE7F7E002C005900D92EC
:10007000A638B107D9F70E9441000C94BB030C9439
:100080000000CF93DF9300D000D01F92CDB7DEB732
:100090000E9499000E94DB0040E650E060E081E0B1
:1000A0000E94C3004DE650E060E082E00E94C30081
:1000B0000F2EFFE7EF2EF0E0FF2EF02D8E010F5FE9
:1000C0001F4F0E94E2001F928F93FF92EF921F93A7
:1000D0000F930E94E600A8016DE082E00E94C30039
:1000E0000F900F900F900F900F900F90EACF82BB60
:1000F00085B3877E85BBAA9A82E08A95F1F700C016
:10010000AA988FE697E10197F1F700C000000895E3
:1001100082BBAB9885B3846185BB82E08A95F1F799
:1001200000C0AA988FEC97E00197F1F700C000009B
:10013000089584B38C6184BB8FEF81BB8FE39CE90E
:100140000197F1F700C0000088E30E9477008CE07F
:100150000E94770086E00E94770081E00E9477008D
:1001600080E80E9477000895CF93DF93EC018881A7
:10017000882331F021960E94880089918111FBCF5C
:10018000DF91CF910895CF93DF93EA01813031F46D
:10019000862F8F7080680E94770007C0823029F414
:1001A000862F8F70806C0E947700CE010E94B40071
:1001B000DF91CF91089587B38F7487BBBE9A80E497
:1001C0008DB90895779BFECF8FB10895AEE0B0E072
:1001D000ECEEF0E00C9492030D891E8986E08C838E
:1001E0001A8309838FEF9FE79E838D83CE01499603
:1001F000AC016F89788DCE0101960E940801EF81D4
:10020000F885E00FF11F10822E96E4E00C94AE0307
:10021000ACE0B0E0EEE0F1E00C9484037C016B0113
:100220008A01FC0117821682838181FFC6C188245E
:100230008394912C8C0E9D1EF7019381F60193FD02
:10024000859193FF81916F01882309F4B2C18532B2
:1002500039F493FD859193FF81916F01853229F4E3
:10026000B70190E00E94FA02E7CF512C312C20E038
:100270002032A8F48B3261F028F4803251F08332BE
:1002800071F40BC08D3239F0803349F4216028C0FD
:100290002260246025C0286023C0206121C027FD82
:1002A00027C0382F30533A3078F426FF06C0FAE0E2
:1002B0005F9E300D1124532E13C08AE0389E300DFE
:1002C0001124332E20620CC08E3221F426FD71C120
:1002D000206406C08C3611F4206802C0883641F4D0
:1002E000F60193FD859193FF81916F018111C0CF3C
:1002F000982F9554933018F09052933028F40C5F57
:100300001F4FFFE3F9830DC0833631F0833771F05F
:10031000833509F05EC023C0F801808189830E5FB8
:100320001F4F44244394512C540115C03801F2E06E
:100330006F0E711CF801A080B18026FF03C0652DEF
:1003400070E002C06FEF7FEFC5012C870E94EF02C3
:100350002C0183012C856FE7262E222218C038013C
:10036000F2E06F0E711CF801A080B18026FF03C07F
:10037000652D70E002C06FEF7FEFC5012C870E94F2
:10038000E4022C012C8550E8252E222A830123FC2F
:100390001CC006C0B70180E290E00E94FA023A94C5
:1003A000832D90E048165906A8F30FC0F50127FCED
:1003B000859127FE81915F01B70190E00E94FA02CA
:1003C00031103A94F1E04F1A51084114510471F779
:1003D000EDC0843611F0893641F5F80127FF07C0DA
:1003E00060817181828193810C5F1F4F08C06081A1
:1003F0007181882777FD8095982F0E5F1F4F4FE6FC
:10040000B42EB22297FF09C09095809570956195A2
:100410007F4F8F4F9F4FF0E8BF2A2AE030E0A401C2
:100420000E942603A82EA81843C0853731F43FEE5A
:10043000B32EB2222AE030E024C099EFB92EB222C6
:100440008F36B9F020F4883509F0B3C00DC080377D
:1004500021F0883709F0ADC002C020E1B22AB4FE15
:100460000BC084E0B82A08C024FF09C0E6E0BE2A19
:1004700006C028E030E005C020E130E002C020E105
:1004800032E0F801B7FE07C06081718182819381FB
:100490000C5F1F4F06C06081718180E090E00E5FAD
:1004A0001F4FA4010E942603A82EA818FFE7BF2211
:1004B000B6FE0BC02B2D2E7FA51450F4B4FE0AC03F
:1004C000B2FC08C02B2D2E7E05C07A2C2B2D03C02C
:1004D0007A2C01C0752C24FF0DC0FE01EA0DF11D20
:1004E0008081803311F4297E09C022FF06C07394F5
:1004F000739404C0822F867809F0739423FD14C08E
:1005000020FF0FC05A2C731460F4530C5718732C2F
:1005100008C0B70180E290E02C870E94FA02739431
:100520002C857314B0F304C0731410F4371801C091
:10053000312C24FF12C0B70180E390E02C870E9489
:10054000FA022C8522FF1EC021FF03C088E590E03F
:1005500002C088E790E0B7010CC0822F867891F046
:1005600021FD02C080E201C08BE227FD8DE2B701D0
:1005700090E00E94FA0206C0B70180E390E00E947A
:10058000FA025A94A514C0F3AA94F401EA0DF11DDD
:10059000B701808190E00E94FA02A110F5CF06C059
:1005A000B70180E290E00E94FA023A943110F8CF4D
:1005B00043CEF7012681378102C02FEF3FEFC901FB
:1005C0002C96E2E10C94A003FC0105906150704070
:1005D0000110D8F7809590958E0F9F1F0895FC010C
:1005E0006150704001900110D8F7809590958E0F62
:1005F0009F1F08950F931F93CF93DF938C01EB01FF
:100600008B8181FD03C00FEF1FEF1AC082FF0DC069
:100610002E813F818C819D812817390764F4E88100
:10062000F9810193F983E88306C0E885F985802F75
:100630000995892B41F78E819F8101969F838E8337
:10064000C801DF91CF911F910F910895FA01AA2758
:10065000283051F1203181F1E8946F936E7F6E5F05
:100660007F4F8F4F9F4FAF4FB1E03ED0B4E03CD0B3
:10067000670F781F891F9A1FA11D680F791F8A1F96
:10068000911DA11D6A0F711D811D911DA11D20D0FD
:1006900009F468943F912AE0269F11243019305DB7
:1006A0003193DEF6CF010895462F4770405D4193A8
:1006B000B3E00FD0C9F7F6CF462F4F70405D4A33F5
:1006C00018F0495D31FD4052419302D0A9F7EACFBD
:1006D000B4E0A6959795879577956795BA95C9F7EC
:1006E00000976105710508959B01AC010A2E0694DF
:1006F0005795479537952795BA95C9F7620F731F98
:10070000841F951FA01D08952F923F924F925F92D4
:100710006F927F928F929F92AF92BF92CF92DF9211
:10072000EF92FF920F931F93CF93DF93CDB7DEB776
:10073000CA1BDB0B0FB6F894DEBF0FBECDBF09940A
:100740002A88398848885F846E847D848C849B8461
:10075000AA84B984C884DF80EE80FD800C811B816F
:10076000AA81B981CE0FD11D0FB6F894DEBF0FBE9E
:0A077000CDBFED010895F894FFCF0E
:10077A00536C6176652044657669636500526563EA
:10078A006569766520446174613A2020202000253D
:06079A0064202020000095
:00000001FF
