:100000000C942A000C943F000C943F000C943F0089
:100010000C943F000C943F000C943F000C943F0064
:100020000C943F000C943F000C943F000C943F0054
:100030000C943F000C943F000C943F000C943F0044
:100040000C943F000C943F000C943F000C943F0034
:100050000C943F0011241FBECFE5D8E0DEBFCDBF1A
:1000600010E0A0E6B0E0E4E4FBE002C005900D92F1
:10007000A038B107D9F70E9459000C94A0050C9440
:1000800000001ABA87E886B980E487B908958770B6
:10009000806487B9369A349BFECF349A8FEC97E010
:1000A0000197F1F700C0000024B135B1822F932FE2
:1000B0000895CF93DF93CDB7DEB72A970FB6F894A4
:1000C000DEBF0FBECDBF0E94F1000E9441000E9422
:1000D000330140E650E060E081E00E941B014EE603
:1000E00050E060E082E00E941B01C4980F2EFFEDFB
:1000F000CF2EF02D0F2EF8E7EF2EF0E0FF2EF02D93
:100100008E010F5F1F4F0F2EFAE0DF2EF02D80E0E3
:100110000E944700BC01882777FD8095982F0E9498
:10012000DC0126EF38E24CE950E40E94680220E04E
:1001300030E040E251E40E944101862E972EA82E25
:10014000B92E1F92CF920E94A9017F936F93FF92C5
:10015000EF921F930F930E94CB02A80168E082E008
:100160000E941B01682D792D8A2D9B2D0E94AE01C6
:10017000862F0E943C012FEF84E39CE021508040B9
:100180009040E1F700C00000F8012D2D11922A9552
:10019000E9F70FB6F894DEBF0FBECDBFB8CF82BB74
:1001A00085B3877E85BBAA9A82E08A95F1F700C065
:1001B000AA988FE697E10197F1F700C00000089533
:1001C00082BBAB9885B3846185BB82E08A95F1F7E9
:1001D00000C0AA988FEC97E00197F1F700C00000EB
:1001E000089584B38C6184BB8FEF81BB8FE39CE95E
:1001F0000197F1F700C0000088E30E94CF008CE077
:100200000E94CF0086E00E94CF0081E00E94CF00D4
:1002100080E80E94CF000895CF93DF93EC0188819E
:10022000882331F021960E94E00089918111FBCF53
:10023000DF91CF910895CF93DF93EA01813031F4BC
:10024000862F8F7080680E94CF0007C0823029F40B
:10025000862F8F70806C0E94CF00CE010E940C010F
:10026000DF91CF91089587B3806B87BBBE98C49A06
:1002700081E58DB9709808958FB9779BFECF8FB1C6
:1002800008950CD0EBC0E3D040F0DAD030F021F488
:100290005F3F19F0CCC0511115C1CFC0F0D098F319
:1002A0009923C9F35523B1F3951B550BBB27AA27F7
:1002B00062177307840738F09F5F5F4F220F331F69
:1002C000441FAA1FA9F333D00E2E3AF0E0E830D035
:1002D00091505040E695001CCAF729D0FE2F27D038
:1002E000660F771F881FBB1F261737074807AB0706
:1002F000B0E809F0BB0B802DBF01FF2793585F4F7B
:100300002AF09E3F510568F092C0DCC05F3FECF3DD
:10031000983EDCF3869577956795B795F7959F5F3F
:10032000C9F7880F911D9695879597F90895E1E093
:10033000660F771F881FBB1F621773078407BA07F2
:1003400020F0621B730B840BBA0BEE1F88F7E0954D
:10035000089504D06894B111B5C0089598D088F07C
:100360009F5790F0B92F9927B751A0F0D1F0660FA1
:10037000771F881F991F1AF0BA95C9F712C0B130BC
:1003800081F09FD0B1E008959CC0672F782F882717
:10039000B85F39F0B93FCCF3869577956795B395FB
:1003A000D9F73EF490958095709561957F4F8F4F6A
:1003B0009F4F0895E89409C097FB3EF4909580956F
:1003C000709561957F4F8F4F9F4F9923A9F0F92F1B
:1003D00096E9BB279395F695879577956795B79599
:1003E000F111F8CFFAF4BB0F11F460FF1BC06F5F7F
:1003F0007F4F8F4F9F4F16C0882311F096E911C091
:10040000772321F09EE8872F762F05C0662371F0B1
:1004100096E8862F70E060E02AF09A95660F771FC5
:10042000881FDAF7880F9695879597F9089597F9B9
:100430009F6780E870E060E008959FEF80EC08958A
:1004400000240A94161617061806090608950024B3
:100450000A9412161306140605060895092E03942D
:10046000000C11F4882352F0BB0F40F4BF2B11F4A1
:1004700060FF04C06F5F7F4F8F4F9F4F089557FD00
:100480009058440F551F59F05F3F71F04795880F02
:1004900097FB991F61F09F3F79F087950895121699
:1004A00013061406551FF2CF4695F1DF08C0161645
:1004B00017061806991FF1CF8695710561050894F6
:1004C0000895E894BB2766277727CB0197F908950D
:1004D0000BD0C4CFB5DF28F0BADF18F0952309F0B0
:1004E000A6CFABCF1124EECFCADFA0F3959FD1F3F7
:1004F000950F50E0551F629FF001729FBB27F00DD2
:10050000B11D639FAA27F00DB11DAA1F649F662726
:10051000B00DA11D661F829F2227B00DA11D621F75
:10052000739FB00DA11D621F839FA00D611D221F2F
:10053000749F3327A00D611D231F849F600D211D13
:10054000822F762F6A2F11249F5750408AF0E1F0B6
:1005500088234AF0EE0FFF1FBB1F661F771F881FFF
:1005600091505040A9F79E3F510570F060CFAACF3F
:100570005F3FECF3983EDCF3869577956795B795EA
:10058000F795E7959F5FC1F7FE2B880F911D969514
:10059000879597F90895AEE0B0E0E1EDF2E00C94B4
:1005A00077050D891E8986E08C831A8309838FEF76
:1005B0009FE79E838D83CE014996AC016F89788D2C
:1005C000CE0101960E94ED02EF81F885E00FF11F48
:1005D00010822E96E4E00C949305ACE0B0E0E3EFDB
:1005E000F2E00C9469057C016B018A01FC01178221
:1005F0001682838181FFC6C188248394912C8C0E3E
:100600009D1EF7019381F60193FD859193FF8191E2
:100610006F01882309F4B2C1853239F493FD8591C5
:1006200093FF81916F01853229F4B70190E00E9418
:10063000DF04E7CF512C312C20E02032A8F48B329C
:1006400061F028F4803251F0833271F40BC08D32A6
:1006500039F0803349F4216028C02260246025C02D
:10066000286023C0206121C027FD27C0382F3053C8
:100670003A3078F426FF06C0FAE05F9E300D112470
:10068000532E13C08AE0389E300D1124332E206281
:100690000CC08E3221F426FD71C1206406C08C3658
:1006A00011F4206802C0883641F4F60193FD85916B
:1006B00093FF81916F018111C0CF982F9554933092
:1006C00018F09052933028F40C5F1F4FFFE3F9832A
:1006D0000DC0833631F0833771F0833509F05EC089
:1006E00023C0F801808189830E5F1F4F4424439407
:1006F000512C540115C03801F2E06F0E711CF80145
:10070000A080B18026FF03C0652D70E002C06FEFAE
:100710007FEFC5012C870E94D4042C0183012C8516
:100720006FE7262E222218C03801F2E06F0E711CEE
:10073000F801A080B18026FF03C0652D70E002C0E3
:100740006FEF7FEFC5012C870E94C9042C012C8517
:1007500050E8252E222A830123FC1CC006C0B701C5
:1007600080E290E00E94DF043A94832D90E04816E6
:100770005906A8F30FC0F50127FC859127FE81914A
:100780005F01B70190E00E94DF0431103A94F1E07C
:100790004F1A51084114510471F7EDC0843611F01D
:1007A000893641F5F80127FF07C060817181828198
:1007B00093810C5F1F4F08C060817181882777FD8E
:1007C0008095982F0E5F1F4F4FE6B42EB22297FFF1
:1007D00009C090958095709561957F4F8F4F9F4F81
:1007E000F0E8BF2A2AE030E0A4010E940B05A82E01
:1007F000A81843C0853731F43FEEB32EB2222AE069
:1008000030E024C099EFB92EB2228F36B9F020F42F
:10081000883509F0B3C00DC0803721F0883709F062
:10082000ADC002C020E1B22AB4FE0BC084E0B82AF9
:1008300008C024FF09C0E6E0BE2A06C028E030E078
:1008400005C020E130E002C020E132E0F801B7FE4F
:1008500007C060817181828193810C5F1F4F06C048
:100860006081718180E090E00E5F1F4FA4010E94C3
:100870000B05A82EA818FFE7BF22B6FE0BC02B2D34
:100880002E7FA51450F4B4FE0AC0B2FC08C02B2D74
:100890002E7E05C07A2C2B2D03C07A2C01C0752C1E
:1008A00024FF0DC0FE01EA0DF11D8081803311F49B
:1008B000297E09C022FF06C07394739404C0822F5E
:1008C000867809F0739423FD14C020FF0FC05A2CC2
:1008D000731460F4530C5718732C08C0B70180E2EE
:1008E00090E02C870E94DF0473942C857314B0F37E
:1008F00004C0731410F4371801C0312C24FF12C047
:10090000B70180E390E02C870E94DF042C8522FF52
:100910001EC021FF03C088E590E002C088E790E098
:10092000B7010CC0822F867891F021FD02C080E2D1
:1009300001C08BE227FD8DE2B70190E00E94DF0449
:1009400006C0B70180E390E00E94DF045A94A5142A
:10095000C0F3AA94F401EA0DF11DB701808190E083
:100960000E94DF04A110F5CF06C0B70180E290E03D
:100970000E94DF043A943110F8CF43CEF70126816C
:10098000378102C02FEF3FEFC9012C96E2E10C94B2
:100990008505FC010590615070400110D8F78095E5
:1009A00090958E0F9F1F0895FC016150704001903B
:1009B0000110D8F7809590958E0F9F1F08950F9383
:1009C0001F93CF93DF938C01EB018B8181FD03C0DB
:1009D0000FEF1FEF1AC082FF0DC02E813F818C8167
:1009E0009D812817390764F4E881F9810193F9831F
:1009F000E88306C0E885F985802F0995892B41F7A2
:100A00008E819F8101969F838E83C801DF91CF9154
:100A10001F910F910895FA01AA27283051F1203132
:100A200081F1E8946F936E7F6E5F7F4F8F4F9F4F82
:100A3000AF4FB1E03ED0B4E03CD0670F781F891FC4
:100A40009A1FA11D680F791F8A1F911DA11D6A0F92
:100A5000711D811D911DA11D20D009F468943F9145
:100A60002AE0269F11243019305D3193DEF6CF0144
:100A70000895462F4770405D4193B3E00FD0C9F70A
:100A8000F6CF462F4F70405D4A3318F0495D31FD77
:100A90004052419302D0A9F7EACFB4E0A6959795CA
:100AA000879577956795BA95C9F7009761057105A0
:100AB00008959B01AC010A2E0694579547953795EA
:100AC0002795BA95C9F7620F731F841F951FA01D44
:100AD00008952F923F924F925F926F927F928F92E2
:100AE0009F92AF92BF92CF92DF92EF92FF920F93BD
:100AF0001F93CF93DF93CDB7DEB7CA1BDB0B0FB6C7
:100B0000F894DEBF0FBECDBF09942A883988488883
:100B10005F846E847D848C849B84AA84B984C88419
:100B2000DF80EE80FD800C811B81AA81B981CE0F10
:100B3000D11D0FB6F894DEBF0FBECDBFED010895F5
:040B4000F894FFCF57
:100B44004D6173746572204465766963650054650C
:100B54006D703A2020202000256425634320200066
:00000001FF
