:100000000C942A000C9447000C9447000C94470071
:100010000C9447000C9447000C9412310C94470048
:100020000C9447000C94AA310C94D8300C94A13055
:100030000C9447000C9447000C9447000C94470024
:100040000C9447000C9447000C9447000C94470014
:100050000C94470011241FBECFE5D8E0DEBFCDBF12
:1000600011E0A0E6B0E0E6E3F9E602C005900D92EB
:10007000A037B107D9F711E0A0E7B1E001C01D92A8
:10008000A139B107E1F70E9461320C9499340C94C4
:100090000000EF92FF920F93DF93CF93CDB7DEB7BF
:1000A00060970FB6F894DEBF0FBECDBFA82F002318
:1000B00009F461C07E010894E11CF11C88E0F7019D
:1000C00011928A95E9F729833A834B835C836D8388
:1000D0007E83AF83988780E2801BE82FFF27E7FDB0
:1000E000F09549815A816B817C81181684F01986BC
:1000F0001A861B861C86882799278E1B9F0B04C097
:10010000440F551F661F771F8A95D2F728C0202FEE
:10011000332727FD3095DB01CA01022E04C0880F6A
:10012000991FAA1FBB1F0A94D2F789879A87AB87AA
:10013000BC8704C07695679557954795EA95D2F7A1
:100140008D819E81AF81B88504C0880F991FAA1F39
:10015000BB1F2A95D2F7482B592B6A2B7B2B4D8737
:100160005E876F87788B29853A854B855C856D85A1
:100170007E85AF8598898A2F60960FB6F894DEBF8A
:100180000FBECDBFCF91DF910F91FF90EF900895FB
:10019000EF92FF920F931F937B018C0120E030E0E0
:1001A00040E05FE40E94AD1088238CF0C801B701E5
:1001B00020E030E040E05FE40E94250F0E946B11D8
:1001C0009B01AC01205030404040504806C0C8015F
:1001D000B7010E946B119B01AC01B901CA011F91CB
:1001E0000F91FF90EF900895AEE5B0E0EAEFF0E0F8
:1001F0000C946234A8E04E010894811C911CF40117
:100200006A2E11926A94E9F729833A834B835C83BF
:100210006D837E838F839887CE010996FC011192AE
:10022000AA95E9F7A986BA86CB86DC86ED86FE8696
:100230000F87188B29843A844B845C84ED84FE8478
:100240000F85188969807A808B809C806DA67EA638
:100250008FA698AA6D807E808F809884E114F10427
:100260000105110509F0B3C36214730484049504F5
:1002700008F03DC100E0201600E0300601E0400635
:1002800000E0500688F41FEF2116310441045104A8
:1002900039F030F048E0E42EF12C012D112D18C07A
:1002A000EE24FF24870114C020E0221620E032064D
:1002B00020E0420621E0520630F038E1E32EF12C36
:1002C000012D112D05C020E1E22EF12C012D112D63
:1002D000D201C1010E2C04C0B695A79597958795BC
:1002E0000A94D2F782599F4FDC012C9180E290E072
:1002F000A0E0B0E08E199F09A00BB10B7C018D012D
:10030000E21AF10801091109E114F10401051105CE
:10031000A1F10E2C04C0220C331C441C551C0A9461
:10032000D2F7A40193010E2C04C0220F331F441FE7
:10033000551F0A94D2F780E290E08E199F096DA4B0
:100340007EA48FA498A804C0969487947794679409
:100350008A95D2F7622A732A842A952AADA4BEA46C
:10036000CFA4D8A804C0AA0CBB1CCC1CDD1CEA94EA
:10037000D2F7ADA6BEA6CFA6D8AA6201EE24FF246E
:10038000CDAADEAAEFAAF8AE9201810120703070EA
:1003900009AF1AAF2BAF3CAFC401B301A70196015F
:1003A0000E942C347B018C01C401B3012DA93EA90C
:1003B0004FA958AD0E942C34C901DA013C014D010E
:1003C000C401B30129AD3AAD4BAD5CAD0E94FA3327
:1003D0009B01AC018701FF24EE24ADA4BEA4CFA4F1
:1003E000D8A8C601AA27BB2757016801A82AB92A9D
:1003F000CA2ADB2AA216B306C406D506E0F408947E
:100400006108710881089108A20CB31CC41CD51C9A
:10041000A214B304C404D50470F0A216B306C40633
:10042000D50648F408946108710881089108A20C67
:10043000B31CC41CD51CA21AB30AC40AD50AC6012F
:10044000B5012DA93EA94FA958AD0E942C347B01BE
:100450008C01C601B5012DA93EA94FA958AD0E9436
:100460002C34C901DA015C016D01C601B50129AD69
:100470003AAD4BAD5CAD0E94FA339B01AC018701F4
:10048000FF24EE248DA59EA5AFA5B8A9A070B070DD
:10049000E82AF92A0A2B1B2BE216F3060407150794
:1004A000C0F40894A108B108C108D108E20CF31CFB
:1004B000041D151DE214F3040405150550F0E216A1
:1004C000F3060407150728F40894A108B108C10829
:1004D000D108D3019927882786017501E82AF92ACE
:1004E0000A2B1B2BE9AAFAAA0BAB1CABCFC4211415
:1004F00031044104510471F461E070E080E090E067
:1005000020E030E040E050E00E942C34C901DA01E4
:100510001C012D0100E0201600E0300601E040063D
:1005200000E0500688F41FEF211631044104510405
:1005300031F028F048E050E060E070E017C040E0A3
:1005400050E060E070E012C020E0221620E03206A9
:1005500020E0420621E0520628F048E150E060E049
:1005600070E004C040E150E060E070E0D201C10101
:10057000042E04C0B695A795979587950A94D2F74F
:1005800082599F4FDC012C91E0E2EE2EF12C012DDF
:10059000112DD801C701841B950BA60BB70B821B2D
:1005A0009109A109B1090097A105B10561F46401A0
:1005B0005301A218B308C408D50831E0632E712C8A
:1005C000812C912C1EC16F968FAF6F97082E04C09F
:1005D000220C331C441C551C0A94D2F7EE2DE81B48
:1005E000640153010E2E04C0D694C794B794A79407
:1005F0000A94D2F7A40193016F960FAC6F9704C0D1
:10060000220F331F441F551F0A94D2F76DA47EA4F6
:100610008FA498A80E2E04C096948794779467941C
:100620000A94D2F784017301E22AF32A042B152BD2
:10063000E9A6FAA60BA71CA73201882499249201E7
:1006400081012070307021960CAF1DAF2EAF3FAFEF
:100650002197C601B501A40193010E942C347B01AE
:100660008C01C601B501A40193010E942C34C9017B
:10067000DA0125968CAF9DAFAEAFBFAF2597BC0119
:10068000CD0121962CAD3DAD4EAD5FAD21970E94C1
:10069000FA339B01AC018701FF24EE24A9A4BAA47C
:1006A000CBA4DCA4C601AA27BB275C016D01AE2840
:1006B000BF28C02AD12AA216B306C406D50660F503
:1006C00025966CAD7DAD8EAD9FAD25976150704088
:1006D0008040904025966CAF7DAF8EAF9FAF259741
:1006E000A20CB31CC41CD51CA214B304C404D504AE
:1006F00098F0A216B306C406D50670F46150704097
:100700008040904025966CAF7DAF8EAF9FAF259710
:10071000A20CB31CC41CD51CA21AB30AC40AD50A65
:10072000C601B501A40193010E942C347B018C0108
:10073000C601B501A40193010E942C34C901DA015C
:100740003C014D01C401B30121962CAD3DAD4EAD30
:100750005FAD21970E94FA339B01AC018701FF2412
:10076000EE2489A59AA5ABA5BCA5A070B0705701D1
:100770006801A82AB92ACA2ADB2AA216B306C40627
:10078000D506E0F408946108710881089108A20C6C
:10079000B31CC41CD51CA214B304C404D50470F04B
:1007A000A216B306C406D50648F408946108710879
:1007B00081089108A20CB31CC41CD51C8DA59EA554
:1007C000AFA5B8A96F960FAC6F9704C0880F991F9B
:1007D000AA1FBB1F0A94D2F78DA79EA7AFA7B8ABDD
:1007E000A21AB30AC40AD50A2596ECACFDAC0EAD2C
:1007F0001FAD2597D70199278827682A792A8A2A41
:100800009B2A82012227332729960CAF1DAF2EAFDA
:100810003FAF2997A2019101407050702D962CAFE7
:100820003DAF4EAF5FAF2D97C601B50129962CADF8
:100830003DAD4EAD5FAD29970E942C347B018C01FC
:10084000C601B50129962CAD3DAD4EAD5FAD2997E2
:100850000E942C34C901DA0161968CAF9DAFAEAF16
:10086000BFAF6197BC01CD012D962CAD3DAD4EAD16
:100870005FAD2D970E94FA339B01AC018701FF24E5
:10088000EE24ADA4BEA4CFA4D8A8C601AA27BB2736
:1008900057016801A82AB92ACA2ADB2AA216B30678
:1008A000C406D50660F561966CAD7DAD8EAD9FAD8D
:1008B0006197615070408040904061966CAF7DAF11
:1008C0008EAF9FAF6197A20CB31CC41CD51CA214A1
:1008D000B304C404D50498F0A216B306C406D50622
:1008E00070F4615070408040904061966CAF7DAF75
:1008F0008EAF9FAF6197A20CB31CC41CD51CA21A6B
:10090000B30AC40AD50AC601B50129962CAD3DAD7E
:100910004EAD5FAD29970E942C347B018C01C6013E
:10092000B50129962CAD3DAD4EAD5FAD29970E9426
:100930002C34C901DA015C016D01C601B5012D96A7
:100940002CAD3DAD4EAD5FAD2D970E94FA339B01AE
:10095000AC018701FF24EE248DA59EA5AFA5B8A903
:10096000A070B070E82AF92A0A2B1B2BE216F306B6
:1009700004071507C0F40894A108B108C108D108FC
:10098000E20CF31C041D151DE214F3040405150507
:1009900050F0E216F3060407150728F40894A1089E
:1009A000B108C108D1086196ECACFDAC0EAD1FAD2D
:1009B0006197D7019927882796018501082B192B64
:1009C0002A2B3B2B09AB1AAB2BAB3CAB62C26E1490
:1009D0007F048006910608F451C220E0E21620E070
:1009E000F20621E0020720E0120788F43FEFE31649
:1009F000F1040105110531F028F048E050E060E015
:100A000070E017C040E050E060E070E012C040E0ED
:100A1000E41640E0F40640E0040741E0140728F043
:100A200048E150E060E070E004C040E150E060E088
:100A300070E0D801C701042E04C0B695A79597951C
:100A400087950A94D2F782599F4FDC012C9130E2AE
:100A5000A32EB12CC12CD12CD601C501841B950B22
:100A6000A60BB70B821B9109A109B1090097A1053B
:100A7000B10589F4E614F7040805190508F4F2C174
:100A80006DA47EA48FA498A86214730484049504B2
:100A900008F0E8C1F3C16E968FAF6E97082E04C0C0
:100AA000EE0CFF1C001F111F0A94D2F76A2D681B61
:100AB000D201C101062E04C0B695A79597958795DA
:100AC0000A94D2F75C016D01AE28BF28C02AD12A52
:100AD000ADA2BEA2CFA2D8A6720161016E960FACE4
:100AE0006E9704C0CC0CDD1CEE1CFF1C0A94D2F7E0
:100AF000C9A2DAA2EBA2FCA264015301062E04C033
:100B0000D694C794B794A7940A94D2F7D401C3019A
:100B10006E960FAC6E9704C0880F991FAA1FBB1F5B
:100B20000A94D2F7EDA4FEA40FA518A904C0169547
:100B30000795F794E7946A95D2F737014801682A38
:100B4000792A8A2A9B2A6D8E7E8E8F8E98A2EDA09E
:100B5000FEA00FA118A538018824992498018701C7
:100B60002070307065960CAF1DAF2EAF3FAF65970C
:100B7000C601B501A40193010E942C347B018C01B4
:100B8000C601B501A40193010E942C34C901DA0108
:100B90001C012D01C201B10165962CAD3DAD4EADDC
:100BA0005FAD65970E94FA339B01AC018701FF247A
:100BB000EE24AD8CBE8CCF8CD8A0C601AA27BB2753
:100BC00057016801A82AB92ACA2ADB2AA216B30645
:100BD000C406D50600F508942108310841085108DB
:100BE000EDA0FEA00FA118A5AE0CBF1CC01ED11E0B
:100BF000AE14BF04C006D10670F0A216B306C40638
:100C0000D50648F408942108310841085108AE0C73
:100C1000BF1CC01ED11EA21AB30AC40AD50AC6013F
:100C2000B501A40193010E942C347B018C01C60103
:100C3000B501A40193010E942C34C901DA013C01E1
:100C40004D01C401B30165962CAD3DAD4EAD5FAD18
:100C500065970E94FA339B01AC018701FF24EE24C3
:100C60008D8D9E8DAF8DB8A1A070B07057016801B9
:100C7000A82AB92ACA2ADB2AA216B306C406D506B0
:100C800000F5089461087108810891086DA17EA1A2
:100C90008FA198A5A60EB71EC81ED91EA616B70608
:100CA000C806D90670F0A216B306C406D50648F4E5
:100CB00008946108710881089108A60EB71EC81E25
:100CC000D91ED601C501821B930BA40BB50B898FCE
:100CD0009A8FAB8FBC8FD10199278827640153016C
:100CE000A82AB92ACA2ADB2AA9AABAAACBAADCAAA4
:100CF000860175012FEF3FEF40E050E0E222F32242
:100D000004231523A601662777276D964CAF5DAFA8
:100D10006EAF7FAF6D97A9A0BAA0CBA0DCA06FEF9C
:100D20007FEF80E090E0A622B722C822D92289A1D5
:100D30009AA1ABA1BCA11D0144245524C801B7014F
:100D4000A60195010E94FA3369966CAF7DAF8EAF14
:100D50009FAF6997C801B701A20191010E94FA33C0
:100D60003B014C016D966CAD7DAD8EAD9FAD6D9729
:100D7000A60195010E94FA337B018C016D966CAD42
:100D80007DAD8EAD9FAD6D97A20191010E94FA33AA
:100D90005B016C01A8019701260D371D481D591DE7
:100DA00069966CAC7DAC8EAC9FAC6997C401AA27E8
:100DB000BB27280F391F4A1F5B1F2E153F05400711
:100DC000510748F4E12CF12C61E0062F112DAE0CF7
:100DD000BF1CC01ED11ECA01AA27BB27BC01CD0162
:100DE0006A0D7B1D8C1D9D1D698C7A8C8B8C9C8C57
:100DF000661677068806990640F166157705880518
:100E0000990509F043C0D9019927882769962CAD27
:100E10003DAD4EAD5FAD699740705070820F931F2E
:100E2000A41FB51F2DA53EA54FA558A96E960FACC2
:100E30006E9704C0220F331F441F551F0A94D2F728
:100E4000281739074A075B0708F509A91AA92BA92A
:100E50003CA9015010402040304009AB1AAB2BABED
:100E60003CAB14C066247724430121E030E040E02D
:100E700050E029AB3AAB4BAB5CAB0BC0662477249C
:100E8000430119AA1AAA1BAA1CAA03C06624772424
:100E90004301FE01719688E0DF011D928A95E9F712
:100EA000A9A8BAA8CBA8DCA8A98ABA8ACB8ADC8A66
:100EB0006D8A7E8A8F8A988E29A93A894B895C89A6
:100EC000662D7E898F89988DC25ADF4FE2E10C949E
:100ED0007E34ABE5B0E0EFE6F7E00C946234A8E0D6
:100EE0004E010894811C911CF4016A2E11926A949F
:100EF000E9F729833A834B835C836D837E838F83F9
:100F00009887CE010996FC011192AA95E9F7A98666
:100F1000BA86CB86DC86ED86FE860F87188B298401
:100F20003A844B845C84AD84BE84CF84D888298184
:100F30003A814B815C8169962FAF69976A963FAF82
:100F40006A976B964FAF6B976C965FAF6C976C968A
:100F50006CAC7DAC8EAC9FAC6C9769AA7AAA8BAA5C
:100F60009CAA6D817E818F8198853B014C016DAA81
:100F70007EAA8FAA98AEA114B104C104D10409F0CD
:100F800004C3621473048404950408F000C100E0F3
:100F9000201600E0300601E0400600E0500688F42C
:100FA0001FEF211631044104510439F030F088E07C
:100FB000E82EF12C012D112D18C0EE24FF248701FD
:100FC00014C040E0241640E0340640E0440641E00E
:100FD000540630F0B8E1EB2EF12C012D112D05C097
:100FE000A0E1EA2EF12C012D112DD201C1010E2C10
:100FF00004C0B695A795979587950A94D2F782591C
:101000009F4FDC012C9180E290E0A0E0B0E08E19CF
:101010009F09A00BB10B5C016D01A21AB108C108B8
:10102000D108A9AEBAAECBAEDCAEA114B104C104F6
:10103000D10409F43FC069AD062E04C0220C331C54
:10104000441C551C0A94D2F7A4019301062E04C037
:10105000220F331F441F551F0A94D2F780E290E0FD
:101060008A199B096C96CCACDDACEEACFFAC6C97EE
:1010700004C0F694E794D794C7948A95D2F7870171
:101080007601E22AF32A042B152BEDAAFEAA0FAB58
:1010900018AF6C968CAD9DADAEADBFAD6C9704C076
:1010A000880F991FAA1FBB1F6A95D2F789AB9AAB0D
:1010B000ABABBCAB320188249924B201A1016070B2
:1010C000707021964CAF5DAF6EAF7FAF21976DA969
:1010D0007EA98FA998ADA40193010E942C347B01B5
:1010E0008C016DA97EA98FA998ADA40193010E94DE
:1010F0002C34CA01B90121962CAD3DAD4EAD5FAD8A
:1011000021970E94FA339B01AC018701FF24EE2452
:10111000A9A8BAA8CBA8DCA8C601AA27BB27570153
:101120006801A82AB92ACA2ADB2AA216B306C4066D
:10113000D50690F4A20CB31CC41CD51CA214B30495
:10114000C404D50448F0A216B306C406D50620F49C
:10115000A20CB31CC41CD51CA21AB30AC40AD50A1B
:10116000C601B501A40193010E942C347B018C01BE
:10117000C601B501A40193010E942C34CA01B90132
:1011800021962CAD3DAD4EAD5FAD2197BAC1211476
:1011900031044104510471F461E070E080E090E0BA
:1011A00020E030E040E050E00E942C34C901DA0138
:1011B0001C012D0100E0201600E0300601E0400691
:1011C00000E0500688F41FEF211631044104510459
:1011D00039F030F068E0E62EF12C012D112D18C009
:1011E000EE24FF24870114C040E0241640E03406BA
:1011F00040E0440641E0540630F058E1E52EF12C81
:10120000012D112D05C040E1E42EF12C012D112DF1
:10121000D201C1010E2C04C0B695A795979587956C
:101220000A94D2F782599F4FDC012C9130E2A32E11
:10123000B12CC12CD12CD601C5018E199F09A00B50
:10124000B10B7C018D01E21AF10801091109E9AE27
:10125000FAAE0BAF1CAFE114F1040105110539F42E
:1012600064015301A218B308C408D508E2C0F9AC60
:101270006896FFAE68970F2C04C0220C331C441CE8
:10128000551C0A94D2F78A2D8F1964015301082E38
:1012900004C0D694C794B794A7940A94D2F7A40133
:1012A000930104C0220F331F441F551FFA94D2F735
:1012B0006C966CAC7DAC8EAC9FAC6C9704C0969475
:1012C0008794779467948A95D2F784017301E22A10
:1012D000F32A042B152BEDA6FEA60FA718AB32019F
:1012E00088249924B201A1016070707025964CAFDA
:1012F0005DAF6EAF7FAF2597C601B501A401930125
:101300000E942C347B018C01C601B501A40193011C
:101310000E942C34CA01B90125962CAD3DAD4EADCD
:101320005FAD25970E94FA339B01AC018701FF2432
:10133000EE24ADA4BEA4CFA4D8A8C601AA27BB277B
:101340005C016D01AE28BF28C02AD12AA216B306BF
:10135000C406D50690F4A20CB31CC41CD51CA21460
:10136000B304C404D50448F0A216B306C406D506D7
:1013700020F4A20CB31CC41CD51CA21AB30AC40AC4
:10138000D50AC601B501A40193010E942C347B014A
:101390008C01C601B501A40193010E942C34CA013D
:1013A000B90125962CAD3DAD4EAD5FAD25970E94A0
:1013B000FA339B01AC018701FF24EE248DA59EA585
:1013C000AFA5B8A9A070B07057016801A82AB92AC2
:1013D000CA2ADB2AA216B306C406D50690F4A20CCC
:1013E000B31CC41CD51CA214B304C404D50448F017
:1013F000A216B306C406D50620F4A20CB31CC41C66
:10140000D51C6C96ECACFDAC0EAD1FAD6C97689620
:101410000FAC689704C0EE0CFF1C001F111F0A944C
:10142000D2F7E9AAFAAA0BAB1CABA21AB30AC40AF8
:10143000D50A320188249924B201A101607070702C
:1014400029964CAF5DAF6EAF7FAF2997C601B5014E
:10145000A40193010E942C347B018C01C601B501CB
:10146000A40193010E942C34CA01B90129962CAD24
:101470003DAD4EAD5FAD29970E94FA339B01AC01A3
:101480008701FF24EE24A9A8BAA8CBA8DCA8C6012E
:10149000AA27BB2757016801A82AB92ACA2ADB2A2A
:1014A000A216B306C406D50690F4A20CB31CC41C45
:1014B000D51CA214B304C404D50448F0A216B30684
:1014C000C406D50620F4A20CB31CC41CD51CA21A59
:1014D000B30AC40AD50AC601B501A40193010E944A
:1014E0002C347B018C01C601B501A40193010E943B
:1014F0002C34CA01B90129962CAD3DAD4EAD5FAD7E
:1015000029970E94FA339B01AC018701FF24EE2446
:1015100089A99AA9ABA9BCA9A070B070E82AF92A38
:101520000A2B1B2BE216F3060407150790F4E20CB6
:10153000F31C041D151DE214F3040405150548F001
:10154000E216F3060407150720F4E20CF31C041D51
:10155000151DE21AF30A040B150BD801C70109ACDB
:1015600004C0B695A795979587950A94D2F7898B6D
:101570009A8BAB8BBC8B1D8A1E8A1F8A188E282FD4
:101580003A894B895C896D890CC36A147B048C048D
:101590009D0408F409C300E0A01600E0B00601E0D5
:1015A000C00600E0D00688F41FEFA116B104C10404
:1015B000D10439F030F028E0E22EF12C012D112D6C
:1015C00018C0EE24FF24870114C040E0A41640E0B8
:1015D000B40640E0C40641E0D40630F098E1E92EBC
:1015E000F12C012D112D05C080E1E82EF12C012DEB
:1015F000112DD601C5010E2C04C0B695A79597955F
:1016000087950A94D2F782599F4FDC012C9180E292
:1016100090E0A0E0B0E08E199F09A00BB10B821BF7
:101620009109A109B1090097A105B10509F04FC0C1
:10163000A614B704C804D90458F06C96ECACFDAC01
:101640000EAD1FAD6C97E214F3040405150568F1A7
:101650006C96ECACFDAC0EAD1FAD6C97E218F308C8
:1016600004091509A40193012A193B094C095D09D4
:10167000AA24BB2465016C966CAD7DAD8EAD9FAD8B
:101680006C976E157F058007910728F4B1E0AB2EAB
:10169000B12CC12CD12CDA01C9018A199B09AC09E2
:1016A000BD098DAB9EABAFABB8AFE98AFA8A0B8BA5
:1016B0001C8B6DA87EA88FA898AC6D8A7E8A8F8AB5
:1016C000988E2E2D3A894B895C896DA96AC26796DE
:1016D0008FAF6797A6019501082E04C0220F331F14
:1016E000441F551F0A94D2F7A0E2AA2EA81A6696A4
:1016F000AFAE6697D201C10104C0B695A795979584
:101700008795AA94D2F76C017D01C22AD32AE42AD4
:10171000F52AC9A6DAA6EBA6FCA682017101679696
:101720000FAC679704C0EE0CFF1C001F111F0A943A
:10173000D2F7EDA2FEA20FA318A76401530166968B
:101740000FAC669704C0D694C794B794A7940A9434
:10175000D2F7A401930167960FAC679704C0220FDC
:10176000331F441F551F0A94D2F76C968CAD9DAD64
:10177000AEADBFAD6C9766960FAC669704C0B695DC
:10178000A795979587950A94D2F73C014D01622A57
:10179000732A842A952A69A27AA28BA29CA26C96AB
:1017A000ECACFDAC0EAD1FAD6C9767960FAC6797B8
:1017B00004C0EE0CFF1C001F111F0A94D2F7ED8E1F
:1017C000FE8E0F8F18A349A55AA56BA57CA53B01DA
:1017D00088249924607070702D964CAF5DAF6EAF09
:1017E0007FAF2D97C601B501A40193010E942C344F
:1017F0007B018C01C601B501A40193010E942C3428
:10180000C901DA011C012D01C201B1012D962CADD7
:101810003DAD4EAD5FAD2D970E94FA339B01AC01FB
:101820008701FF24EE24A9A0BAA0CBA0DCA0C601AA
:10183000AA27BB2757016801A82AB92ACA2ADB2A86
:10184000A216B306C406D50600F50894210831088F
:1018500041085108E9A4FAA40BA51CA5AE0CBF1CB5
:10186000C01ED11EAE14BF04C006D10670F0A21671
:10187000B306C406D50648F4089421083108410887
:101880005108AE0CBF1CC01ED11EA21AB30AC40A56
:10189000D50AC601B501A40193010E942C347B0135
:1018A0008C01C601B501A40193010E942C34C90129
:1018B000DA013C014D01C401B3012D962CAD3DADC3
:1018C0004EAD5FAD2D970E94FA339B01AC018701AD
:1018D000FF24EE2489A19AA1ABA1BCA1A070B07095
:1018E00057016801A82AB92ACA2ADB2AA216B30618
:1018F000C406D50600F508946108710881089108AE
:1019000069A57AA58BA59CA5A60EB71EC81ED91ED3
:10191000A616B706C806D90670F0A216B306C40606
:10192000D50648F408946108710881089108A60E4C
:10193000B71EC81ED91ED601C501821B930BA40B6E
:10194000B50B898F9A8FAB8FBC8FD10199278827D0
:1019500084017301E82AF92A0A2B1B2B4FEFA42ECE
:101960004FEFB42EC12CD12CAE20BF20C022D122EB
:101970007801002711276DA07EA08FA098A44FEFBB
:101980005FEF60E070E064227522862297228DA1CD
:101990009EA1AFA1B8A5BD018827992765966CAF18
:1019A0007DAF8EAF9FAF6597C601B501A4019301CE
:1019B0000E94FA3361966CAF7DAF8EAF9FAF619797
:1019C000C601B50165962CAD3DAD4EAD5FAD6597D9
:1019D0000E94FA331B012C01C801B701A401930135
:1019E0000E94FA335B016C01C801B70165962CAD0A
:1019F0003DAD4EAD5FAD65970E94FA337B018C0122
:101A0000A6019501220D331D441D551D61966CAC38
:101A10007DAC8EAC9FAC6197C401AA27BB27280F71
:101A2000391F4A1F5B1F2A153B054C055D0548F40D
:101A3000812C912CE1E0AE2EB12CE80CF91C0A1D92
:101A40001B1DCA01AA27BB2757016801A80EB91E92
:101A5000CA1EDB1EA9013327222761968CAD9DADDE
:101A6000AEADBFAD6197A070B070280F391F4A1F8F
:101A70005B1FE98CFA8C0B8D1C8DEA14FB040C05A2
:101A80001D0570F0AE14BF04C006D10669F56D8D5A
:101A90007E8D8F8D98A1621773078407950720F5B7
:101AA000DA01C9016DA07EA08FA098A486199709BC
:101AB000A809B909E9A4FAA40BA51CA5AE18BF088A
:101AC000C00AD10AEE24FF248701281739074A07E4
:101AD0005B0728F421E0E22EF12C012D112DAE1828
:101AE000BF08C00AD10A02C0DA01C9016D8C7E8C20
:101AF0008F8C98A0681A790A8A0A9B0A498D5A8D98
:101B00006B8D7C8D4A195B096C097D095A016B014B
:101B10002224332421016D8D7E8D8F8D98A1661531
:101B200077058805990528F481E0282E312C412C71
:101B3000512C86017501E218F30804091509A80162
:101B4000970166960FAC669704C0220F331F441F9F
:101B5000551F0A94D2F7D401C30167960FAC67975B
:101B600004C0B695A795979587950A94D2F7282B28
:101B7000392B4A2B5B2B298B3A8B4B8B5C8B6796D3
:101B80000FAC679704C016950795F794E7940A94ED
:101B9000D2F7ED8AFE8A0F8B188F3A894B895C89C0
:101BA0006E2D7E898F89988DC55ADF4FE2E10C94A6
:101BB0007E34A0E0B0E0EFEDFDE00C946234DC0197
:101BC0002B01FA019C91923008F439C1EB01888114
:101BD000823008F433C1943069F4843009F02FC1A5
:101BE00011969C9111978981981709F428C1A6E64E
:101BF000B0E025C1843009F421C18230A9F49230CB
:101C000009F01DC19A01AD0188E0EA010990AE0119
:101C1000E90109929E018150C1F7E2018981119683
:101C20009C918923818308C1923009F407C11296DF
:101C30002D903C901397EB018A819B811496AD9077
:101C4000BD90CD90DC901797EC80FD800E811F81B8
:101C50009101281B390BB90137FF04C0662777278C
:101C6000621B730B603271050CF061C01216130613
:101C70006CF537014801062E04C09694879477943A
:101C800067940A94D2F721E030E040E050E004C0CD
:101C9000220F331F441F551F6A95D2F72150304041
:101CA000404050402E213F21402351232115310532
:101CB0004105510521F021E030E040E050E079019C
:101CC0008A01E628F728082919293CC0232BD1F1DD
:101CD000260E371E35014601062E04C096948794C1
:101CE000779467940A94D2F721E030E040E050E026
:101CF00004C0220F331F441F551F6A95D2F721508D
:101D00003040404050402A213B214C215D2121158B
:101D100031054105510521F021E030E040E050E07F
:101D200059016A01A628B728C828D9280BC08215EE
:101D300093052CF01C01AA24BB24650103C0EE24EA
:101D4000FF24870111969C91D20111968C919817CE
:101D500009F445C0992339F0A80197012A193B09D4
:101D60004C095D0906C0A60195012E193F09400BDB
:101D7000510B57FD08C011823382228224833583A0
:101D8000468357831DC081E0818333822282882766
:101D90009927DC01821B930BA40BB50B84839583DD
:101DA000A683B7830DC0220F331F441F551F248302
:101DB00035834683578382819381019793838283FE
:101DC0002481358146815781DA01C9010197A10932
:101DD000B1098F5F9F4FAF4FBF4328F30BC0918373
:101DE00033822282EA0CFB1C0C1D1D1DE482F5824D
:101DF0000683178383E08083248135814681578160
:101E000057FF1AC0C901AA2797FDA095BA2F817064
:101E10009070A070B0705695479537952795822B96
:101E2000932BA42BB52B84839583A683B7838281C0
:101E30009381019693838283DF0101C0D201CD019A
:101E4000CDB7DEB7E2E10C947E34A0E2B0E0EBE285
:101E5000FFE00C946E3469837A838B839C832D839B
:101E60003E834F835887E9E0EE2EF12CEC0EFD1EE9
:101E7000CE010196B7010E94E3128E010F5E1F4F43
:101E8000CE010596B8010E94E3128A8991E0892764
:101E90008A8BC701B801AE01475E5F4F0E94D90D22
:101EA0000E940E12A096E6E00C948A34A0E2B0E004
:101EB000ECE5FFE00C946E3469837A838B839C831A
:101EC0002D833E834F835887F9E0EF2EF12CEC0EE3
:101ED000FD1ECE010196B7010E94E3128E010F5E36
:101EE0001F4FCE010596B8010E94E312C701B80149
:101EF000AE01475E5F4F0E94D90D0E940E12A09660
:101F0000E6E00C948A34A0E2B0E0E9E8FFE00C944B
:101F1000623469837A838B839C832D833E834F83D2
:101F20005887CE010196BE01675F7F4F0E94E31282
:101F3000CE010596BE016F5E7F4F0E94E312998528
:101F4000923088F089898230C8F0943019F4823058
:101F500051F404C0843029F4923081F486E690E094
:101F6000C6C0923049F420E09A858A89981321E00E
:101F70002A87CE010996BBC0823049F420E09A85B9
:101F80008A89981321E02A8BCE014196B0C02D8416
:101F90003E844F8458886D887E888F88988CEE2484
:101FA000FF248701AA24BB24650140E050E060E0E3
:101FB00070E0E0E0F0E0C10181709070892BE9F001
:101FC000E60CF71C081D191D9A01AB012A0D3B1DDB
:101FD0004C1D5D1D80E090E0A0E0B0E0E614F70449
:101FE0000805190520F481E090E0A0E0B0E0BA0116
:101FF000A901480F591F6A1F7B1FAA0CBB1CCC1CD0
:10200000DD1C97FE08C081E090E0A0E0B0E0A82AC7
:10201000B92ACA2ADB2A3196E032F10549F0660C6A
:10202000771C881C991C5694479437942794C3CFE7
:10203000FA85EA892B893C898B859C85280F391F75
:102040002E5F3F4F17C0CA0181709070892B61F0DD
:1020500016950795F794E79480E090E0A0E0B0E84B
:10206000E82AF92A0A2B1B2B7695679557954795F1
:102070002F5F3F4F77FDE7CF0CC0440F551F661F02
:10208000771F17FD4160EE0CFF1C001F111F215030
:102090003040403090E0590790E0690790E47907BC
:1020A00060F32B8F3C8FDB01CA018F779070A0709B
:1020B000B07080349105A105B10561F447FD0AC0F7
:1020C000E114F1040105110529F0405C5F4F6F4FE9
:1020D0007F4F40781A8EFE1711F081E08A8F4D8F66
:1020E0005E8F6F8F78A383E0898FCE0149960E941F
:1020F0000E12A096E2E10C947E34A8E1B0E0E3E891
:10210000F0E10C946E3469837A838B839C832D83F6
:102110003E834F83588789E0E82EF12CEC0EFD1E9C
:10212000CE010196B7010E94E3128E010F5E1F4F90
:10213000CE010596B8010E94E3128985823040F0F5
:102140008989823028F0C701B8010E945B1301C061
:102150008FEF6896E6E00C948A34A8E1B0E0E3EBF8
:10216000F0E10C946E3469837A838B839C832D8396
:102170003E834F83588789E0E82EF12CEC0EFD1E3C
:10218000CE010196B7010E94E3128E010F5E1F4F30
:10219000CE010596B8010E94E3128985823040F095
:1021A0008989823028F0C701B8010E945B1301C001
:1021B0008FEF6896E6E00C948A34A8E1B0E0E3EE95
:1021C000F0E10C946E3469837A838B839C832D8336
:1021D0003E834F83588789E0E82EF12CEC0EFD1EDC
:1021E000CE010196B7010E94E3128E010F5E1F4FD0
:1021F000CE010596B8010E94E3128985823040F035
:102200008989823028F0C701B8010E945B1301C0A0
:1022100081E06896E6E00C948A34A8E0B0E0E3E15F
:10222000F1E10C946B349B01AC0183E08983DA010A
:10223000C9018827B7FD83959927AA27BB27B82E00
:10224000211531054105510519F482E089833AC011
:102250008823A9F0203080E0380780E0480780E834
:10226000580729F460E070E080E09FEC30C0EE2475
:10227000FF248701E21AF30A040B150B02C079014F
:102280008A018EE1C82ED12CDC82CB82ED82FE82C7
:102290000F831887C801B7010E94BF110197181654
:1022A000190684F4082E04C0EE0CFF1C001F111F39
:1022B0000A94D2F7ED82FE820F831887C81AD90AD2
:1022C000DC82CB82BA82CE0101960E940E12289641
:1022D000E9E00C948734ACE0B0E0E1E7F1E10C9484
:1022E000723469837A838B839C83CE010196BE010D
:1022F0006B5F7F4F0E94E3128D81823061F18230EB
:1023000050F1843021F48E81882351F12EC02F8129
:10231000388537FD20C06E812F3131051CF06623D2
:10232000F9F023C08EE190E0821B930B29853A855A
:102330004B855C8504C056954795379527958A95BA
:10234000D2F76623B1F050954095309521953F4FD7
:102350004F4F5F4F0EC020E030E040E050E009C03A
:102360002FEF3FEF4FEF5FE704C020E030E040E0A9
:1023700050E8B901CA012C96E2E00C948E34EF9239
:10238000FF920F931F937B018C0180E0E81680E0A1
:10239000F80681E0080780E0180788F48FEFE81658
:1023A000F1040105110531F028F088E090E0A0E08B
:1023B000B0E017C080E090E0A0E0B0E012C080E0A4
:1023C000E81680E0F80680E0080781E0180728F0AA
:1023D00088E190E0A0E0B0E004C080E190E0A0E0FF
:1023E000B0E020E230E040E050E0281B390B4A0B1F
:1023F0005B0B04C016950795F794E7948A95D2F77E
:10240000F701E259FF4F8081281B31094109510929
:10241000C9011F910F91FF90EF900895DF92EF9205
:10242000FF920F931F93FC01E480F58006811781D2
:10243000D1808081823048F480E090E0A0E1B0E07B
:10244000E82AF92A0A2B1B2BA5C0843009F49FC067
:10245000823021F4EE24FF24870105C0E114F10449
:102460000105110519F4E0E0F0E096C06281738186
:102470009FEF623879070CF05BC022E83FEF261B24
:10248000370B2A3131052CF020E030E040E050E0FD
:102490002AC0B801A701022E04C07695679557950A
:1024A00047950A94D2F781E090E0A0E0B0E004C044
:1024B000880F991FAA1FBB1F2A95D2F70197A10960
:1024C000B1098E219F21A023B1230097A105B10559
:1024D00021F081E090E0A0E0B0E09A01AB01282B70
:1024E000392B4A2B5B2BDA01C9018F779070A070D2
:1024F000B07080349105A105B10539F427FF09C0FA
:10250000205C3F4F4F4F5F4F04C0215C3F4F4F4F08
:102510005F4FE0E0F0E02030A0E03A07A0E04A079B
:10252000A0E45A0710F0E1E0F0E079018A0127C049
:102530006038710564F5FB01E158FF4FD801C70110
:102540008F779070A070B07080349105A105B105AF
:1025500039F4E7FE0DC080E490E0A0E0B0E004C0F4
:102560008FE390E0A0E0B0E0E80EF91E0A1F1B1F09
:1025700017FF05C016950795F794E794319687E005
:1025800016950795F794E7948A95D1F705C0EE2440
:10259000FF248701EFEFF0E06E2F679566276795C0
:1025A000902F9F77D794DD24D7948E2F8695492F2F
:1025B000462B582F5D29B701CA011F910F91FF903B
:1025C000EF90DF900895FC01DB0140815181228171
:1025D000622F6F7770E0221F2227221F9381892F9D
:1025E000880F822B282F30E0991F9927991F119669
:1025F0009C93119721153105A9F5411551056105E8
:10260000710511F482E037C082E89FEF13969C9326
:102610008E9312979A01AB0167E0220F331F441F7C
:10262000551F6A95D1F783E08C930DC0220F331F9D
:10263000441F551F12968D919C91139701971396E5
:102640009C938E931297203080E0380780E04807F3
:1026500080E4580758F314962D933D934D935C9363
:10266000179708952F3F310579F4411551056105FC
:10267000710519F484E08C93089564FF03C081E030
:102680008C9312C01C9210C02F57304013963C936D
:102690002E93129783E08C9387E0440F551F661F9B
:1026A000771F8A95D1F7706414964D935D936D935F
:1026B0007C93179708951F93DC01FB019C91923046
:1026C00008F447C08081823008F443C0943051F44C
:1026D00011961C91843099F58181682F70E0611BFF
:1026E00071093FC0843021F0923031F48230B9F169
:1026F0008181882389F12DC011961C911197823018
:10270000F1F081811817D9F412962D913C9113970D
:10271000828193818217930794F028173907BCF0C0
:1027200014968D919D910D90BC91A02D24813581A1
:1027300046815781281739074A075B0718F4112388
:1027400041F00AC082179307A407B50740F411238C
:1027500019F061E070E005C06FEF7FEF02C060E04C
:1027600070E0CB011F910895DF93CF9300D000D08C
:10277000CDB7DEB789836A838981282F30E03C8317
:102780002B838B819C8182349105D9F02B813C81F4
:102790002334310534F48B819C818134910561F0BF
:1027A0001EC02B813C812334310581F08B819C81BB
:1027B0008434910581F013C0EAE3F0E08A818083DC
:1027C0000EC0E7E3F0E08A81808309C0E4E3F0E033
:1027D0008A81808304C0E1E3F0E08A8180830F90E6
:1027E0000F900F900F90CF91DF910895DF93CF93CB
:1027F00000D000D0CDB7DEB789836A838981282FC6
:1028000030E03C832B838B819C8182349105D9F00D
:102810002B813C812334310534F48B819C818134BC
:10282000910561F01EC02B813C812334310581F07C
:102830008B819C818434910581F013C0EBE3F0E03F
:102840008A8180830EC0E8E3F0E08A81808309C03A
:10285000E5E3F0E08A81808304C0E2E3F0E08A816E
:1028600080830F900F900F900F90CF91DF9108957C
:10287000DF93CF9300D000D00F92CDB7DEB789831E
:102880006A834B838981282F30E03D832C838C81A0
:102890009D818234910509F448C02C813D81233407
:1028A000310534F48C819D818134910571F0CBC068
:1028B0002C813D812334310509F467C08C819D81D1
:1028C0008434910509F491C0BEC08B818130A1F49C
:1028D000AAE3B0E0EAE3F0E08081482F8A81282F64
:1028E00030E081E090E0022E02C0880F991F0A9428
:1028F000E2F7842B8C93A7C08B81882309F0A3C0B7
:10290000AAE3B0E0EAE3F0E08081482F8A81282F33
:1029100030E081E090E0022E02C0880F991F0A94F7
:10292000E2F7809584238C938EC08B818130A1F453
:10293000A7E3B0E0E7E3F0E08081482F8A81282F09
:1029400030E081E090E0022E02C0880F991F0A94C7
:10295000E2F7842B8C9377C08B81882309F073C0B6
:10296000A7E3B0E0E7E3F0E08081482F8A81282FD9
:1029700030E081E090E0022E02C0880F991F0A9497
:10298000E2F7809584238C935EC08B818130A1F423
:10299000A4E3B0E0E4E3F0E08081482F8A81282FAF
:1029A00030E081E090E0022E02C0880F991F0A9467
:1029B000E2F7842B8C9347C08B81882309F043C0B6
:1029C000A4E3B0E0E4E3F0E08081482F8A81282F7F
:1029D00030E081E090E0022E02C0880F991F0A9437
:1029E000E2F7809584238C932EC08B818130A1F4F3
:1029F000A1E3B0E0E1E3F0E08081482F8A81282F55
:102A000030E081E090E0022E02C0880F991F0A9406
:102A1000E2F7842B8C9317C08B818823A1F4A1E368
:102A2000B0E0E1E3F0E08081482F8A81282F30E098
:102A300081E090E0022E02C0880F991F0A94E2F70D
:102A4000809584238C930F900F900F900F900F9090
:102A5000CF91DF910895DF93CF9300D000D00F92F4
:102A6000CDB7DEB789836A834B838981282F30E015
:102A70003D832C838C819D818234910509F448C06B
:102A80002C813D812334310534F48C819D81813446
:102A9000910571F0CBC02C813D812334310509F4BF
:102AA00067C08C819D818434910509F491C0BEC0BA
:102AB0008B818130A1F4ABE3B0E0EBE3F0E0808107
:102AC000482F8A81282F30E081E090E0022E02C05A
:102AD000880F991F0A94E2F7842B8C93A7C08B81EF
:102AE000882309F0A3C0ABE3B0E0EBE3F0E0808122
:102AF000482F8A81282F30E081E090E0022E02C02A
:102B0000880F991F0A94E2F7809584238C938EC0D6
:102B10008B818130A1F4A8E3B0E0E8E3F0E08081AC
:102B2000482F8A81282F30E081E090E0022E02C0F9
:102B3000880F991F0A94E2F7842B8C9377C08B81BE
:102B4000882309F073C0A8E3B0E0E8E3F0E08081F7
:102B5000482F8A81282F30E081E090E0022E02C0C9
:102B6000880F991F0A94E2F7809584238C935EC0A6
:102B70008B818130A1F4A5E3B0E0E5E3F0E0808152
:102B8000482F8A81282F30E081E090E0022E02C099
:102B9000880F991F0A94E2F7842B8C9347C08B818E
:102BA000882309F043C0A5E3B0E0E5E3F0E08081CD
:102BB000482F8A81282F30E081E090E0022E02C069
:102BC000880F991F0A94E2F7809584238C932EC076
:102BD0008B818130A1F4A2E3B0E0E2E3F0E08081F8
:102BE000482F8A81282F30E081E090E0022E02C039
:102BF000880F991F0A94E2F7842B8C9317C08B815E
:102C00008823A1F4A2E3B0E0E2E3F0E08081482F62
:102C10008A81282F30E081E090E0022E02C0880FE8
:102C2000991F0A94E2F7809584238C930F900F905C
:102C30000F900F900F90CF91DF910895DF93CF9376
:102C400000D000D0CDB7DEB78A838A81282F30E04C
:102C50003C832B838B819C8182349105D9F02B811D
:102C60003C812334310534F48B819C81813491057E
:102C700061F01EC02B813C812334310581F08B81B2
:102C80009C818434910581F013C0E9E3F0E08081F8
:102C900089830EC0E6E3F0E08081898309C0E3E325
:102CA000F0E08081898304C0E0E3F0E080818983E3
:102CB00089810F900F900F900F90CF91DF91089521
:102CC000DF93CF9300D000D00F92CDB7DEB78A83C9
:102CD0006B838A81282F30E03D832C834C815D817A
:102CE0004234510541F18C819D818334910534F446
:102CF0002C813D812134310561F052C04C815D81D0
:102D00004334510551F18C819D8184349105B9F191
:102D100047C0E9E3F0E08081282F30E08B81882FE5
:102D200090E0A90102C0559547958A95E2F7CA013E
:102D30008170898335C0E6E3F0E08081282F30E0A0
:102D40008B81882F90E0A90102C0559547958A95FF
:102D5000E2F7CA018170898323C0E3E3F0E0808158
:102D6000282F30E08B81882F90E0A90102C0559573
:102D700047958A95E2F7CA018170898311C0E0E323
:102D8000F0E08081282F30E08B81882F90E0A9012E
:102D900002C0559547958A95E2F7CA0181708983EB
:102DA00089810F900F900F900F900F90CF91DF912E
:102DB0000895DF93CF93CDB7DEB7E0E2F0E084E093
:102DC0008083A1E2B0E0E1E2F0E080818E7F8C932D
:102DD000A1E2B0E0E1E2F0E080818D7F8C93A6E596
:102DE000B0E0E6E5F0E0808184608C93CF91DF91E4
:102DF0000895DF93CF93CDB7DEB7E2E2F0E080E253
:102E00008083A6E5B0E0E6E5F0E0808184608C9305
:102E1000CF91DF910895DF93CF93CDB7DEB7A6E5CD
:102E2000B0E0E6E5F0E0808180688C93A6E5B0E054
:102E3000E6E5F0E0808180628C93A6E5B0E0E6E50F
:102E4000F0E0808184608C93E6E5F0E08081882367
:102E5000DCF7E1E2F0E08081882F90E0887F9070DD
:102E600088309105B1F7CF91DF910895DF93CF932B
:102E7000CDB7DEB7A6E5B0E0E6E5F0E0808180689A
:102E80008C93A6E5B0E0E6E5F0E0808180628C936B
:102E9000A6E5B0E0E6E5F0E0808184608C93E6E5AD
:102EA000F0E080818823DCF7E1E2F0E08081882F88
:102EB00090E0887F907080319105B1F7CF91DF91DC
:102EC0000895DF93CF930F92CDB7DEB78983E3E206
:102ED000F0E089818083A3E2B0E0E3E2F0E080816A
:102EE0008E7F8C93A6E5B0E0E6E5F0E08081806817
:102EF0008C93A6E5B0E0E6E5F0E0808184608C93F9
:102F0000E6E5F0E080818823DCF7E1E2F0E0808113
:102F1000882F90E0887F907088319105B1F70F90ED
:102F2000CF91DF910895DF93CF930F92CDB7DEB7A6
:102F30008983E3E2F0E089818083A3E2B0E0E3E209
:102F4000F0E0808181608C93A6E5B0E0E6E5F0E0FA
:102F5000808180688C93A6E5B0E0E6E5F0E08081B2
:102F600084608C93E6E5F0E080818823DCF7E1E281
:102F7000F0E08081882F90E0887F90708034910508
:102F8000B1F70F90CF91DF910895DF93CF930F9218
:102F9000CDB7DEB78983E3E2F0E089818083A6E5DF
:102FA000B0E0E6E5F0E0808180688C93A6E5B0E0D3
:102FB000E6E5F0E0808184608C93E6E5F0E08081D6
:102FC0008823DCF7E1E2F0E08081882F90E0887FC1
:102FD000907088329105B1F70F90CF91DF910895ED
:102FE000DF93CF93CDB7DEB7A6E5B0E0E6E5F0E03E
:102FF000808180688C93A6E5B0E0E6E5F0E0808112
:1030000084608C93E6E5F0E080818823DCF7E1E2E0
:10301000F0E08081882F90E0887F9070883591055E
:10302000B1F7E3E2F0E08081CF91DF910895DF9383
:10303000CF93CDB7DEB7A6E5B0E0E6E5F0E080815E
:1030400080688C93A6E5B0E0E6E5F0E080818061E1
:103050008C93A6E5B0E0E6E5F0E0808184608C9397
:10306000E6E5F0E0808182958F70882F90E0817096
:1030700090700097A9F3CF91DF910895DF93CF93DC
:10308000CDB7DEB7A6E5B0E0E6E5F0E08081846C80
:103090008C93E6E5F0E080818823DCF7E1E2F0E064
:1030A0008081882F90E0887F9070883A9105B1F7F1
:1030B000CF91DF910895DF93CF93CDB7DEB7A6E52B
:1030C000B0E0E6E5F0E08081846C8C93E6E5F0E02A
:1030D00080818823DCF7E1E2F0E08081882F90E0B6
:1030E000887F907080369105B1F7CF91DF91089578
:1030F000DF93CF93CDB7DEB7A6E5B0E0E6E5F0E02D
:103100008081846C8C93E6E5F0E080818823DCF795
:10311000E1E2F0E08081882F90E0887F9070803835
:103120009105B1F7E3E2F0E08081CF91DF9108955E
:10313000DF93CF930F92CDB7DEB78983E3E2F0E060
:1031400089818083A6E5B0E0E6E5F0E08081846CCB
:103150008C93E6E5F0E080818823DCF7E1E2F0E0A3
:103160008081882F90E0887F9070803C9105B1F736
:103170000F90CF91DF910895DF93CF93CDB7DEB756
:103180006D970FB6F894DEBF0FBECDBF8D8F84E470
:103190006D8D0E94F61383E460E041E00E942B15E0
:1031A00083E461E040E00E942B1583E462E041E0AB
:1031B0000E942B1580E090E0A0E8BFE3898F9A8FF2
:1031C000AB8FBC8F698D7A8D8B8D9C8D20E030E824
:1031D0004BE355E40E94830FDC01CB018D8B9E8B6A
:1031E000AF8BB88F6D897E898F89988D20E030E014
:1031F00040E85FE30E94DD1088232CF481E090E03A
:103200009C8B8B8B3FC06D897E898F89988D20E048
:103210003FEF4FE757E40E947D1018164CF5698D7B
:103220007A8D8B8D9C8D20E030E040E251E40E944D
:10323000830FDC01CB01BC01CD010E94C800DC0181
:10324000CB019C8B8B8B0FC08CE291E09A8B898B8E
:1032500089899A890197F1F79A8B898B8B899C8947
:1032600001979C8B8B8B8B899C89009769F714C085
:103270006D897E898F89988D0E94C800DC01CB0101
:103280009C8B8B8B8B899C89988B8F878F8598895A
:103290000197F1F7988B8F8783E462E040E00E940A
:1032A0002B1580E090E0A0E0B0E48B879C87AD8791
:1032B000BE876B857C858D859E8520E030E84BE35D
:1032C00055E40E94830FDC01CB018F839887A98787
:1032D000BA876F81788589859A8520E030E040E85B
:1032E0005FE30E94DD1088232CF481E090E09E8350
:1032F0008D833FC06F81788589859A8520E03FEF77
:103300004FE757E40E947D1018164CF56B857C85BD
:103310008D859E8520E030E040E251E40E94830FDD
:10332000DC01CB01BC01CD010E94C800DC01CB0156
:103330009E838D830FC08CE291E09C838B838B8175
:103340009C810197F1F79C838B838D819E810197EE
:103350009E838D838D819E81009769F714C06F8154
:10336000788589859A850E94C800DC01CB019E83FF
:103370008D838D819E819A83898389819A8101972A
:10338000F1F79A8389836D960FB6F894DEBF0FBE6E
:10339000CDBFCF91DF910895DF93CF93CDB7DEB747
:1033A0006D970FB6F894DEBF0FBECDBF8D8F84E44E
:1033B0006D8D0E94F61383E460E040E00E942B15BF
:1033C00083E461E040E00E942B1583E462E041E089
:1033D0000E942B1580E090E0A0E8BFE3898F9A8FD0
:1033E000AB8FBC8F698D7A8D8B8D9C8D20E030E802
:1033F0004BE355E40E94830FDC01CB018D8B9E8B48
:10340000AF8BB88F6D897E898F89988D20E030E0F1
:1034100040E85FE30E94DD1088232CF481E090E017
:103420009C8B8B8B3FC06D897E898F89988D20E026
:103430003FEF4FE757E40E947D1018164CF5698D59
:103440007A8D8B8D9C8D20E030E040E251E40E942B
:10345000830FDC01CB01BC01CD010E94C800DC015F
:10346000CB019C8B8B8B0FC08CE291E09A8B898B6C
:1034700089899A890197F1F79A8B898B8B899C8925
:1034800001979C8B8B8B8B899C89009769F714C063
:103490006D897E898F89988D0E94C800DC01CB01DF
:1034A0009C8B8B8B8B899C89988B8F878F85988938
:1034B0000197F1F7988B8F8783E462E040E00E94E8
:1034C0002B1580E090E0A0E0B0E48B879C87AD876F
:1034D000BE876B857C858D859E8520E030E84BE33B
:1034E00055E40E94830FDC01CB018F839887A98765
:1034F000BA876F81788589859A8520E030E040E839
:103500005FE30E94DD1088232CF481E090E09E832D
:103510008D833FC06F81788589859A8520E03FEF54
:103520004FE757E40E947D1018164CF56B857C859B
:103530008D859E8520E030E040E251E40E94830FBB
:10354000DC01CB01BC01CD010E94C800DC01CB0134
:103550009E838D830FC08CE291E09C838B838B8153
:103560009C810197F1F79C838B838D819E810197CC
:103570009E838D838D819E81009769F714C06F8132
:10358000788589859A850E94C800DC01CB019E83DD
:103590008D838D819E819A83898389819A81019708
:1035A000F1F79A8389836D960FB6F894DEBF0FBE4C
:1035B000CDBFCF91DF910895DF93CF93CDB7DEB725
:1035C000E8970FB6F894DEBF0FBECDBF84E46FEF6F
:1035D0000E94B41383E460E041E00E94381483E465
:1035E00061E041E00E94381483E462E041E00E941F
:1035F000381480E090E0A8E4B2E48DAB9EABAFABB2
:10360000B8AF6DA97EA98FA998AD20E030E84BE353
:1036100055E40E94830FDC01CB0189AB9AABABABC5
:10362000BCAB69A97AA98BA99CA920E030E040E84D
:103630005FE30E94DD1088232CF481E090E098ABDA
:103640008FA73FC069A97AA98BA99CA920E03FEF69
:103650004FE757E40E947D1018164CF56DA97EA91E
:103660008FA998AD20E030E040E251E40E94830F42
:10367000DC01CB01BC01CD010E94C800DC01CB0103
:1036800098AB8FA70FC08CE291E09EA78DA78DA568
:103690009EA50197F1F79EA78DA78FA598A90197E1
:1036A00098AB8FA78FA598A9009769F714C069A94F
:1036B0007AA98BA99CA90E94C800DC01CB0198AB18
:1036C0008FA78FA598A99CA78BA78BA59CA50197D1
:1036D000F1F79CA78BA788E30E94CC1980E090E0CB
:1036E000A0E8BFE38FA398A7A9A7BAA76FA178A561
:1036F00089A59AA520E030E84BE355E40E94830FAA
:10370000DC01CB018BA39CA3ADA3BEA36BA17CA1C9
:103710008DA19EA120E030E040E85FE30E94DD1033
:1037200088232CF481E090E09AA389A33FC06BA189
:103730007CA18DA19EA120E03FEF4FE757E40E94BE
:103740007D1018164CF56FA178A589A59AA520E0E3
:1037500030E040E251E40E94830FDC01CB01BC0168
:10376000CD010E94C800DC01CB019AA389A30FC040
:103770008CE291E098A38F8F8F8D98A10197F1F73C
:1037800098A38F8F89A19AA101979AA389A389A150
:103790009AA1009769F714C06BA17CA18DA19EA18D
:1037A0000E94C800DC01CB019AA389A389A19AA138
:1037B0009E8F8D8F8D8D9E8D0197F1F79E8F8D8FB2
:1037C0008CE00E94CC1980E090E0A0E8BFE3898FF4
:1037D0009A8FAB8FBC8F698D7A8D8B8D9C8D20E0FD
:1037E00030E84BE355E40E94830FDC01CB018D8B65
:1037F0009E8BAF8BB88F6D897E898F89988D20E0E5
:1038000030E040E85FE30E94DD1088232CF481E083
:1038100090E09C8B8B8B3FC06D897E898F89988DC2
:1038200020E03FEF4FE757E40E947D1018164CF55B
:10383000698D7A8D8B8D9C8D20E030E040E251E4E3
:103840000E94830FDC01CB01BC01CD010E94C800A6
:10385000DC01CB019C8B8B8B0FC08CE291E09A8BAF
:10386000898B89899A890197F1F79A8B898B8B8942
:103870009C8901979C8B8B8B8B899C89009769F71E
:1038800014C06D897E898F89988D0E94C800DC01E3
:10389000CB019C8B8B8B8B899C89988B8F878F8599
:1038A00098890197F1F7988B8F8781E00E94CC1956
:1038B00080E090E0A0E0B0E48B879C87AD87BE8776
:1038C0006B857C858D859E8520E030E84BE355E453
:1038D0000E94830FDC01CB018F839887A987BA8769
:1038E0006F81788589859A8520E030E040E85FE344
:1038F0000E94DD1088232CF481E090E09E838D836C
:103900003FC06F81788589859A8520E03FEF4FE73A
:1039100057E40E947D1018164CF56B857C858D85CB
:103920009E8520E030E040E251E40E94830FDC01FC
:10393000CB01BC01CD010E94C800DC01CB019E83FC
:103940008D830FC08CE291E09C838B838B819C8163
:103950000197F1F79C838B838D819E8101979E83D4
:103960008D838D819E81009769F714C06F81788562
:1039700089859A850E94C800DC01CB019E838D83D6
:103980008D819E819A83898389819A810197F1F73C
:103990009A838983E8960FB6F894DEBF0FBECDBF39
:1039A000CF91DF910895DF93CF9300D00F92CDB7E1
:1039B000DEB79B838A8319820EC08981282F30E06D
:1039C0008A819B81FC01E20FF31F80810E94BC1859
:1039D00089818F5F89838981282F30E08A819B814B
:1039E000FC01E20FF31F8081882339F70F900F90BD
:1039F0000F90CF91DF910895DF93CF9300D0CDB793
:103A0000DEB789836A838A81883290F48981833022
:103A100078F48981882329F48A8180580E94CC19FE
:103A200007C08981813021F48A8180540E94CC1999
:103A30000F900F90CF91DF910895AF92BF92CF92E8
:103A4000DF92EF92FF920F931F93DF93CF93CDB747
:103A5000DEB7C756D0400FB6F894DEBF0FBECDBF5D
:103A60002A873B874C875D876E877F87888B998BFA
:103A700081E08A831B821C821D821E821F8218861F
:103A8000198619828A859B85892B9C85892B9D8522
:103A9000892B9E85892B9F85892B9889892B9989CC
:103AA000892B882309F07AC380E30E94BC1876C36F
:103AB000AA84BB84CC84DD84EE84FF8408891989C0
:103AC0002A2D3B2D4C2D5D2D6E2D7F2D802F912F7E
:103AD0000F2EFAE0AF2EF02DBB24CC24DD24EE24F3
:103AE000FF2400E010E00E946907A22EB32EC42E2E
:103AF000D52EE62EF72E082F192F2A2D3B2D4C2DD3
:103B00005D2D6E2D7F2D802F912F2983AA84BB845C
:103B1000CC84DD84EE84FF84088919892A2D3B2D0D
:103B20004C2D5D2D6E2D7F2D802F912F0F2EFAE0C5
:103B3000AF2EF02DBB24CC24DD24EE24FF2400E0A6
:103B400010E00E94F400A22EB32EC42ED52EE62E35
:103B5000F72E082F192FAA86BB86CC86DD86EE8627
:103B6000FF86088B198B2A813B814C815D816E8198
:103B70007F8188859985A22EB32EC42ED52EE62E60
:103B8000F72E082F192F2A2D3B2D4C2D5D2D6E2D34
:103B90007F2D802F912F01E00E9449002AA33BA393
:103BA0004CA35DA36EA37FA388A799A72AA13BA1DD
:103BB0004CA15DA16EA17FA188A599A502E00E94FC
:103BC00049002AA73BA74CA75DA76EA77FA788AB94
:103BD00099AB0AA11AA5010F0AAB21E02AAF3AA9B5
:103BE0004AA1341708F01AAE5BA16BA5560F5BAB68
:103BF00071E07BAF8BA99BA1891708F01BAE0AADC2
:103C00001BA9010F0CAF21E02DAF3CAD4BA9341720
:103C100008F01DAE5BAD6DAD562B5BAF7CAD7BABE5
:103C20008CA19CA5890F8CAB01E00EAF1CA92CA127
:103C3000121708F01EAE3BAD4CA9340F3FAF51E058
:103C400021965FAF21976FAD7CA9671718F0219679
:103C50001FAE21978EAD21969FAD2197892B8EAFF8
:103C60000FAD0CAB1DA12DA5120F1DAB31E022969F
:103C70003FAF22974DA95DA1451718F022961FAEC0
:103C800022976EAD7DA9670F23966FAF239781E0D2
:103C900024968FAF249723969FAD23970DA9901755
:103CA00018F024961FAE249722961FAD22972496D3
:103CB0002FAD2497122B22961FAF229723963FAD4C
:103CC00023973DAB4EA15EA5450F4EAB61E0259617
:103CD0006FAF25977EA98EA1781718F025961FAE95
:103CE000259722969FAD22970EA9900F26969FAFFB
:103CF000269711E027961FAF279726962FAD269778
:103D00003EA9231718F027961FAE279725964FAD8B
:103D1000259727965FAD2797452B25964FAF25977B
:103D200026966FAD26976EAB7FA18FA5780F7FABE0
:103D300091E028969FAF28970FA91FA1011718F0AF
:103D400028961FAE289725962FAD25973FA9230FBC
:103D500029962FAF299741E02A964FAF2A972996A7
:103D60005FAD29976FA9561718F02A961FAE2A97AC
:103D700028967FAD28972A968FAD2A97782B28967C
:103D80007FAF289729969FAD29979FAB08A518A9C3
:103D9000010F08AF21E02B962FAF2B9738AD48A528
:103DA000341718F02B961FAE2B9728965FAD2897E7
:103DB00068AD560F2C965FAF2C9771E02D967FAFB4
:103DC0002D972C968FAD2C9798AD891718F02D96BE
:103DD0001FAE2D972B960FAD2B972D961FAD2D97C0
:103DE000012B2B960FAF2B972C962FAD2C9728AF2E
:103DF00039A549A9340F39AF2B968FAD2B9759AD03
:103E0000850F89AF6AA96A8F7BA97B8F8CA98C8F5C
:103E10009DA99D8F0EA90E8F1FA91F8F28AD28A3C6
:103E200039AD39A38981082F10E020E030E040E06F
:103E300050E060E070E00A8B1B8B2C8B3D8B4E8B2F
:103E40005F8B688F798F1A8D2A89120F2E961FAF7C
:103E50002E9731E066963FAF66972E964FAD2E9720
:103E60005A8D451718F066961FAE66976B8D7B8945
:103E7000670F2F966FAF2F9781E067968FAF679789
:103E80002F969FAD2F970B8D901718F067961FAE4A
:103E9000679766961FAD66972F962FAD2F97120FD7
:103EA00068961FAF689731E069963FAF699768964B
:103EB0004FAD68972F965FAD2F97451718F069960D
:103EC0001FAE699767966FAD679769967FAD6997E3
:103ED000672B67966FAF679768968FAD68972F9639
:103EE0008FAF2F979C8D0C89900F60969FAF609736
:103EF00011E06A961FAF6A9760962FAD60973C8D70
:103F0000231718F06A961FAE6A9767964FAD6797AA
:103F100060965FAD6097450F6B964FAF6B9761E012
:103F20006C966FAF6C976B967FAD6B9760968FAD0D
:103F30006097781718F06C961FAE6C976A969FADD5
:103F40006A976C960FAD6C97902B6A969FAF6A97A5
:103F50006B961FAD6B9760961FAF60972D8D3D8957
:103F6000230F61962FAF619741E06D964FAF6D972C
:103F700061965FAD61976D8D561718F06D961FAE07
:103F80006D976A967FAD6A9761968FAD6197780F4E
:103F90006E967FAF6E9791E06F969FAF6F976E961C
:103FA0000FAD6E9761961FAD6197011718F06F9670
:103FB0001FAE6F976D962FAD6D976F963FAD6F9754
:103FC000232B6D962FAF6D976E964FAD6E976196C2
:103FD0004FAF61975E8D6E89560F62965FAF6297A5
:103FE00071E0A0967FAFA09762968FAD62979E8D8D
:103FF000891718F0A0961FAEA0976D960FAD6D971C
:1040000062961FAD6297010FA1960FAFA19721E0B5
:10401000A2962FAFA297A1963FADA19762964FAD02
:104020006297341718F0A2961FAEA297A0965FADC4
:10403000A097A2966FADA297562BA0965FAFA097C0
:10404000A1967FADA19762967FAF62978F8D9F8972
:10405000890F63968FAF639701E0A3960FAFA39785
:1040600063961FAD63972F8D121718F0A3961FAE9E
:10407000A397A0963FADA09763964FAD6397340F7B
:10408000A4963FAFA49751E0A5965FAFA597A496DD
:104090006FADA49763967FAD6397671718F0A596E9
:1040A0001FAEA597A3968FADA397A5969FADA59795
:1040B000892BA3968FAFA397A4960FADA497639671
:1040C0000FAF639718A1288D120F64961FAF6497E6
:1040D00031E0A6963FAFA69764964FAD649758A17E
:1040E000451718F0A6961FAEA697A3966FADA39797
:1040F00064967FAD6497670FA7966FAFA79781E02F
:10410000A8968FAFA897A7969FADA79764960FAD77
:104110006497901718F0A8961FAEA897A6961FADA3
:10412000A697A8962FADA897122BA6961FAFA69775
:10413000A7963FADA79764963FAF649749A1598D65
:10414000450F65964FAF6597A6968FADA697659676
:104150006FAD6597860F65968FAF65972E967FAD8D
:104160002E977A832F968FAD2F978B8360969FAD76
:1041700060979C8361960FAD61970D8362961FAD2A
:1041800062971E8363962FAD63972F8364963FAD2E
:104190006497388765964FAD659749878A859B8573
:1041A000892B9C85892B9D85892B9E85892B9F85B5
:1041B000892B9889892B9989892B882309F078CCB8
:1041C0005FC0AA80BB80CC80DD80EE80FF80088548
:1041D00019852A2D3B2D4C2D5D2D6E2D7F2D802F89
:1041E000912F0F2EFAE0AF2EF02DBB24CC24DD242E
:1041F000EE24FF2400E010E00E946907A22EB32EF7
:10420000C42ED52EE62EF72E082F192F2A2D3B2D42
:104210004C2D5D2D6E2D7F2D802F912F2983AA800F
:10422000BB80CC80DD80EE80FF80088519852A2D3B
:104230003B2D4C2D5D2D6E2D7F2D802F912F0F2E20
:10424000FAE0AF2EF02DBB24CC24DD24EE24FF2495
:1042500000E010E00E94F400A22EB32EC42ED52E52
:10426000E62EF72E082F192FAA82BB82CC82DD8280
:10427000EE82FF82088719878981805D0E94BC18C1
:104280008A81813009F09DCF8B81882309F099CFF5
:104290008C81882309F095CF8D81882309F091CFF7
:1042A0008E81882309F08DCF8F81882309F089CFF3
:1042B0008885882309F085CF8985882309F081CFF7
:1042C000C959DF4F0FB6F894DEBF0FBECDBFCF91F7
:1042D000DF911F910F91FF90EF90DF90CF90BF90F3
:1042E000AF900895AF92BF92CF92DF92EF92FF927C
:1042F0000F931F93DF93CF93CDB7DEB7C25DD0404E
:104300000FB6F894DEBF0FBECDBF6BA37CA38DA309
:104310009EA36BA17CA18DA19EA10E946B11DC01CB
:10432000CB019AA389A389A19AA19A8F898F990F0A
:10433000880B982F8B8F8C8F8D8F8E8F8F8F88A36C
:1043400089A19AA1AA2797FDA095BA2FBC01CD01FA
:104350000E940D119B01AC016BA17CA18DA19EA1BE
:104360000E94250FDC01CB018D8B9E8BAF8BB88F0C
:104370006D897E898F89988D20E030E04AE754E48A
:104380000E94830FDC01CB01BC01CD010E946B11A7
:10439000DC01CB019C8B8B8B81E08B871C861D867F
:1043A0001E861F86188A198A1A8A1A86898D9A8DFE
:1043B000892B9B8D892B9C8D892B9D8D892B9E8D87
:1043C000892B9F8D892B98A1892B882309F0E6C41E
:1043D00080E30E94BC18E2C4A98CBA8CCB8CDC8C24
:1043E000ED8CFE8C0F8D18A12A2D3B2D4C2D5D2DB3
:1043F0006E2D7F2D802F912F0F2EFAE0AF2EF02DF6
:10440000BB24CC24DD24EE24FF2400E010E00E9435
:104410006907A22EB32EC42ED52EE62EF72E082F16
:10442000192F2A2D3B2D4C2D5D2D6E2D7F2D802F8C
:10443000912F2A87A98CBA8CCB8CDC8CED8CFE8CCE
:104440000F8D18A12A2D3B2D4C2D5D2D6E2D7F2D0E
:10445000802F912F0F2EFAE0AF2EF02DBB24CC240D
:10446000DD24EE24FF2400E010E00E94F400A22EE0
:10447000B32EC42ED52EE62EF72E082F192FA98E77
:10448000BA8ECB8EDC8EED8EFE8E0F8F18A32B8511
:104490003C854D855E856F85788989899A89A22EAC
:1044A000B32EC42ED52EE62EF72E082F192F2A2D27
:1044B0003B2D4C2D5D2D6E2D7F2D802F912F01E0FA
:1044C0000E94490028962FAF289729963FAF299739
:1044D0002A964FAF2A972B965FAF2B972C966FAFEC
:1044E0002C972D967FAF2D972E968FAF2E972F96C8
:1044F0009FAF2F9728962FAD289729963FAD2997E4
:104500002A964FAD2A972B965FAD2B972C966FADC1
:104510002C972D967FAD2D972E968FAD2E972F969B
:104520009FAD2F9702E00E94490060962FAF6097E1
:1045300061963FAF619762964FAF629763965FAFA8
:10454000639764966FAF649765967FAF659766963D
:104550008FAF669767969FAF679728960FAD28979E
:1045600060961FAD6097010F68960FAF689721E0C6
:10457000A0962FAFA09768963FAD689728964FAD4D
:104580002897341718F0A0961FAEA09729965FAD14
:10459000299761966FAD6197560F69965FAF6997DE
:1045A00071E0A1967FAFA19769968FAD6997299623
:1045B0009FAD2997891718F0A1961FAEA197A096D5
:1045C0000FADA09769961FAD6997010FA2960FAF27
:1045D000A29721E0A3962FAFA397A2963FADA297F3
:1045E00069964FAD6997341718F0A3961FAEA3973D
:1045F000A1965FADA197A3966FADA397562BA196F9
:104600005FAFA197A2967FADA29769967FAF69979A
:104610002A968FAD2A9762969FAD6297890F6A9608
:104620008FAF6A9701E0A4960FAFA4976A961FAD6B
:104630006A972A962FAD2A97121718F0A4961FAEE4
:10464000A497A1963FADA1976A964FAD6A97340F94
:10465000A5963FAFA59751E0A6965FAFA697A59602
:104660006FADA5976A967FAD6A97671718F0A69603
:104670001FAEA697A4968FADA497A6969FADA697BA
:10468000892BA4968FAFA497A5960FADA5976A9690
:104690000FAF6A972B961FAD2B9763962FAD63973D
:1046A000120F6B961FAF6B9731E0A7963FAFA7979E
:1046B0006B964FAD6B972B965FAD2B97451718F008
:1046C000A7961FAEA797A4966FADA4976B967FADE4
:1046D0006B97670FA8966FAFA89781E0A9968FAFE9
:1046E000A997A8969FADA8976B960FAD6B9790175B
:1046F00018F0A9961FAEA997A7961FADA797A996E0
:104700002FADA997122BA7961FAFA797A8963FADDD
:10471000A8976B963FAF6B972C964FAD2C976496EE
:104720005FAD6497450F6C964FAF6C9761E0AA96AA
:104730006FAFAA976C967FAD6C972C968FAD2C9728
:10474000781718F0AA961FAEAA97A7969FADA797BD
:104750006C960FAD6C97900FAB969FAFAB9711E037
:10476000AC961FAFAC97AB962FADAB976C963FADA9
:104770006C97231718F0AC961FAEAC97AA964FAD66
:10478000AA97AC965FADAC97452BAA964FAFAA9768
:10479000AB966FADAB976C966FAF6C972D967FAD68
:1047A0002D9765968FAD6597780F6D967FAF6D9756
:1047B00091E0AD969FAFAD976D960FAD6D972D962D
:1047C0001FAD2D97011718F0AD961FAEAD97AA96A5
:1047D0002FADAA976D963FAD6D97230FAE962FAF75
:1047E000AE9741E0AF964FAFAF97AE965FADAE9745
:1047F0006D966FAD6D97561718F0AF961FAEAF97C9
:10480000AD967FADAD97AF968FADAF97782BAD9648
:104810007FAFAD97AE969FADAE976D969FAF6D97FC
:104820002E960FAD2E9766961FAD6697010F6E966A
:104830000FAF6E9721E0E0962FAFE0976E963FADF9
:104840006E972E964FAD2E97341718F0E0961FAE48
:10485000E097AD965FADAD976E966FAD6E97560FC4
:10486000E1965FAFE19771E0E2967FAFE297E19664
:104870008FADE1976E969FAD6E97891718F0E2960F
:104880001FAEE297E0960FADE097E2961FADE2977C
:10489000012BE0960FAFE097E1962FADE1976E9672
:1048A0002FAF6E972F963FAD2F9767964FAD6797B7
:1048B000340F6F963FAF6F97E0968FADE0976F968E
:1048C0005FAD6F97850F6F968FAF6F9768966FADDF
:1048D00068976FAF69967FAD699721967FAF2197F3
:1048E0006A968FAD6A9722968FAF22976B969FAD8F
:1048F0006B9723969FAF23976C960FAD6C9724967A
:104900000FAF24976D961FAD6D9725961FAF259716
:104910006E962FAD6E9726962FAF26976F963FAD6A
:104920006F9727963FAF27978A85082F10E020E0E2
:1049300030E040E050E060E070E00FAB18AF29AF2E
:104940003AAF4BAF5CAF6DAF7EAF1FAD2FA9120F6B
:10495000E3961FAFE39731E0EB963FAFEB97E3961B
:104960004FADE3975FAD451718F0EB961FAEEB9791
:1049700021966FAD219778AD670FE4966FAFE497FE
:1049800081E0EC968FAFEC97E4969FADE49721968B
:104990000FAD2197901718F0EC961FAEEC97EB96A1
:1049A0001FADEB97E4962FADE497120FED961FAF76
:1049B000ED9731E0EE963FAFEE97ED964FADED9768
:1049C000E4965FADE497451718F0EE961FAEEE97AC
:1049D000EC966FADEC97EE967FADEE97672BEC966D
:1049E0006FAFEC97ED968FADED97E4968FAFE497B0
:1049F00022969FAD229709AD900FE5969FAFE59760
:104A000011E0EF961FAFEF97E5962FADE597229651
:104A10003FAD2297231718F0EF961FAEEF97EC9655
:104A20004FADEC97E5965FADE597450FC158DF4F69
:104A30004883CF57D04061E0C058DF4F6883C058EB
:104A4000D040C158DF4F7881CF57D040E5968FAD29
:104A5000E597781728F0C058DF4F1882C058D0402B
:104A6000EF969FADEF97C058DF4F0881C058D040F8
:104A7000902BEF969FAFEF97C158DF4F1881CF571C
:104A8000D040E5961FAFE59723962FAD23973AAD1B
:104A9000230FE6962FAFE69741E0CF57DF4F4883CD
:104AA000C158D040E6965FADE69723966FAD239749
:104AB000561728F0CF57DF4F1882C158D040EF96D5
:104AC0007FADEF97E6968FADE697780FCE57DF4F25
:104AD0007883C258D04091E0CD57DF4F9883C358B8
:104AE000D040CE57DF4F0881C258D040E6961FAD68
:104AF000E697011728F0CD57DF4F1882C358D040F2
:104B0000CF57DF4F2881C158D040CD57DF4F388174
:104B1000C358D040232BCF57DF4F2883C158D040F4
:104B2000CE57DF4F4881C258D040E6964FAFE69748
:104B300024965FAD24976BAD560FE7965FAFE7976E
:104B400071E0CC57DF4F7883C458D040E7968FADE3
:104B5000E79724969FAD2497891728F0CC57DF4F0D
:104B60001882C458D040CF57DF4F0881C158D04079
:104B7000E7961FADE797010FCB57DF4F0883C55866
:104B8000D04021E0CA57DF4F2883C658D040CB57CA
:104B9000DF4F3881C558D040E7964FADE7973417BF
:104BA00028F0CA57DF4F1882C658D040CC57DF4F85
:104BB0005881C458D040CA57DF4F6881C658D0408A
:104BC000562BCC57DF4F5883C458D040CB57DF4FBC
:104BD0007881C558D040E7967FAFE79725968FAD8F
:104BE00025979CAD890FE8968FAFE89701E0C957EC
:104BF000DF4F0883C758D040E8961FADE897259649
:104C00002FAD2597121728F0C957DF4F1882C758C4
:104C1000D040CC57DF4F3881C458D040E8964FADD4
:104C2000E897340FC857DF4F3883C858D04051E059
:104C3000C757DF4F5883C958D040C857DF4F6881E6
:104C4000C858D040E8967FADE897671728F0C75757
:104C5000DF4F1882C958D040C957DF4F8881C758E5
:104C6000D040C757DF4F9881C958D040892BC957CA
:104C7000DF4F8883C758D040C857DF4F0881C858D6
:104C8000D040E8960FAFE89726961FAD26972DAD3A
:104C9000120FE9961FAFE99731E0C657DF4F38830F
:104CA000CA58D040E9964FADE99726965FAD269752
:104CB000451728F0C657DF4F1882CA58D040C95749
:104CC000DF4F6881C758D040E9967FADE997670FFD
:104CD000C557DF4F6883CB58D04081E0C457DF4FC2
:104CE0008883CC58D040C557DF4F9881CB58D040EF
:104CF000E9960FADE997901728F0C457DF4F188257
:104D0000CC58D040C657DF4F1881CA58D040C4573E
:104D1000DF4F2881CC58D040122BC657DF4F188365
:104D2000CA58D040C557DF4F3881CB58D040E9969C
:104D30003FAFE99727964FAD27975EAD450FEA96AF
:104D40004FAFEA97C657DF4F8881CA58D040EA96DE
:104D50006FADEA97860FEA968FAFEA97E3967FAD3D
:104D6000E3977B87E4968FADE4978C87E5969FADBC
:104D7000E5979D87E6960FADE6970E87E7961FAD00
:104D8000E7971F87E8962FADE897288BE9963FAD08
:104D9000E997398BEA964FADEA974A8B898D9A8DC0
:104DA000892B9B8D892B9C8D892B9D8D892B9E8D8D
:104DB000892B9F8D892B98A1892B882309F00CCBF7
:104DC0005FC0AB84BC84CD84DE84EF84F88809891D
:104DD0001A892A2D3B2D4C2D5D2D6E2D7F2D802F78
:104DE000912F0F2EFAE0AF2EF02DBB24CC24DD2422
:104DF000EE24FF2400E010E00E946907A22EB32EEB
:104E0000C42ED52EE62EF72E082F192F2A2D3B2D36
:104E10004C2D5D2D6E2D7F2D802F912F2A87AB84F9
:104E2000BC84CD84DE84EF84F88809891A892A2D10
:104E30003B2D4C2D5D2D6E2D7F2D802F912F0F2E14
:104E4000FAE0AF2EF02DBB24CC24DD24EE24FF2489
:104E500000E010E00E94F400A22EB32EC42ED52E46
:104E6000E62EF72E082F192FAB86BC86CD86DE8660
:104E7000EF86F88A098B1A8B8A85805D0E94BC18A0
:104E80008B85813009F09DCF8C85882309F099CFDF
:104E90008D85882309F095CF8E85882309F091CFE1
:104EA0008F85882309F08DCF8889882309F089CFE1
:104EB0008989882309F085CF8A89882309F081CFE1
:104EC0008EE20E94BC1881E08A831B821C821D82B4
:104ED0001E821F821886198619828B899C890097E9
:104EE00009F02FC680E30E94BC182BC68B899C89D1
:104EF0002AE030E0B9010E94193489838B899C89AA
:104F00002AE030E0B9010E941934CB019C8B8B8BD5
:104F10002A813B814C815D816E817F818885998565
:104F2000A22EB32EC42ED52EE62EF72E082F192F23
:104F30002A2D3B2D4C2D5D2D6E2D7F2D802F912FF9
:104F400001E00E944900C357DF4F2883CD58D0406D
:104F5000C257DF4F3883CE58D040C157DF4F488308
:104F6000CF58D040C057DF4F5883C059D040CF569C
:104F7000DF4F6883C159D040CE56DF4F7883C25986
:104F8000D040CD56DF4F8883C359D040CC56DF4F39
:104F90009883C459D040C357DF4F2881CD58D040A3
:104FA000C257DF4F3881CE58D040C157DF4F4881BC
:104FB000CF58D040C057DF4F5881C059D040CF564E
:104FC000DF4F6881C159D040CE56DF4F7881C2593A
:104FD000D040CD56DF4F8881C359D040CC56DF4FEB
:104FE0009881C459D04002E00E944900CB56DF4F5F
:104FF0002883C559D040CA56DF4F3883C659D040A0
:10500000C956DF4F4883C759D040C856DF4F588331
:10501000C859D040C756DF4F6883C959D040C656DB
:10502000DF4F7883CA59D040C556DF4F8883CB59AC
:10503000D040C456DF4F9883CC59D040C357DF4F80
:105040005881CD58D040CB56DF4F6881C559D040EC
:10505000560FC356DF4F5883CD59D04071E0CB5522
:10506000DF4F7883C55AD040C356DF4F8881CD5972
:10507000D040C357DF4F9881CD58D040891728F0D2
:10508000CB55DF4F1882C55AD040C257DF4F088139
:10509000CE58D040CA56DF4F1881C659D040010FB4
:1050A000C256DF4F0883CE59D04021E0CA55DF4FAA
:1050B0002883C65AD040C256DF4F3881CE59D040DF
:1050C000C257DF4F4881CE58D040341728F0CA5518
:1050D000DF4F1882C65AD040CB55DF4F5881C55A92
:1050E000D040C256DF4F6881CE59D040560FC955C7
:1050F000DF4F5883C75AD04071E0C855DF4F7883DF
:10510000C85AD040C955DF4F8881C75AD040C256CF
:10511000DF4F9881CE59D040891728F0C855DF4F0E
:105120001882C85AD040CA55DF4F0881C65AD040AD
:10513000C855DF4F1881C85AD040012BCA55DF4FE0
:105140000883C65AD040C955DF4F2881C75AD0407E
:10515000C256DF4F2883CE59D040C157DF4F388128
:10516000CF58D040C956DF4F4881C759D040340F7F
:10517000C156DF4F3883CF59D04051E0C755DF4F7C
:105180005883C95AD040C156DF4F6881CF59D040AB
:10519000C157DF4F7881CF58D040671728F0C755E7
:1051A000DF4F1882C95AD040CA55DF4F8881C65A8E
:1051B000D040C156DF4F9881CF59D040890FC65596
:1051C000DF4F8883CA5AD04001E0C555DF4F0883BE
:1051D000CB5AD040C655DF4F1881CA5AD040C1566D
:1051E000DF4F2881CF59D040121728F0C555DF4F27
:1051F0001882CB5AD040C755DF4F3881C95AD040AA
:10520000C555DF4F4881CB5AD040342BC755DF4FAF
:105210003883C95AD040C655DF4F5881CA5AD0404A
:10522000C156DF4F5883CF59D040C057DF4F6881F8
:10523000C059D040C856DF4F7881C859D040670F59
:10524000C056DF4F6883C05AD04081E0C455DF4F5D
:105250008883CC5AD040C056DF4F9881C05AD04086
:10526000C057DF4F0881C059D040901728F0C4556F
:10527000DF4F1882CC5AD040C755DF4F1881C95A2A
:10528000D040C056DF4F2881C05AD040120FC355BE
:10529000DF4F1883CD5AD04031E0C255DF4F3883FD
:1052A000CE5AD040C355DF4F4881CD5AD040C0566A
:1052B000DF4F5881C05AD040451728F0C255DF4F04
:1052C0001882CE5AD040C455DF4F6881CC5AD040A6
:1052D000C255DF4F7881CE5AD040672BC455DF4F7F
:1052E0006883CC5AD040C355DF4F8881CD5AD04017
:1052F000C056DF4F8883C05AD040CF56DF4F9881C9
:10530000C159D040C756DF4F0881C959D040900FCE
:10531000CF55DF4F9883C15AD04011E0C155DF4FC0
:105320001883CF5AD040CF55DF4F2881C15AD04083
:10533000CF56DF4F3881C159D040231728F0C155CF
:10534000DF4F1882CF5AD040C455DF4F4881CC5A26
:10535000D040CF55DF4F5881C15AD040450FC0557E
:10536000DF4F4883C05BD04061E0CF54DF4F68839C
:10537000C15BD040C055DF4F7881C05BD040CF5576
:10538000DF4F8881C15AD040781728F0CF54DF4FC3
:105390001882C15BD040C155DF4F9881CF5AD040B1
:1053A000CF54DF4F0881C15BD040902BC155DF4FF8
:1053B0009883CF5AD040C055DF4F1881C05BD04092
:1053C000CF55DF4F1883C15AD040CE56DF4F2881CA
:1053D000C259D040C656DF4F3881CA59D040230F3A
:1053E000CE55DF4F2883C25AD04041E0CE54DF4F24
:1053F0004883C25BD040CE55DF4F5881C25AD0405F
:10540000CE56DF4F6881C259D040561728F0CE548F
:10541000DF4F1882C25BD040C155DF4F7881CF5A31
:10542000D040CE55DF4F8881C25AD040780FCD543E
:10543000DF4F7883C35BD04091E0CC54DF4F98833B
:10544000C45BD040CD54DF4F0881C35BD040CE5504
:10545000DF4F1881C25AD040011728F0CC54DF4FDB
:105460001882C45BD040CE54DF4F2881C25BD0404D
:10547000CC54DF4F3881C45BD040232BCE54DF4F58
:105480002883C25BD040CD54DF4F4881C35BD040FE
:10549000CE55DF4F4883C25AD040CD56DF4F58819A
:1054A000C359D040C556DF4F6881CB59D040560F05
:1054B000CD55DF4F5883C35AD04071E0CB54DF4FF6
:1054C0007883C55BD040CD55DF4F8881C35AD0402B
:1054D000CD56DF4F9881C359D040891728F0CB545F
:1054E000DF4F1882C55BD040CE54DF4F0881C25BCE
:1054F000D040CD55DF4F1881C35AD040010FCA5458
:10550000DF4F0883C65BD04021E0C954DF4F2883BA
:10551000C75BD040CA54DF4F3881C65BD040CD5501
:10552000DF4F4881C35AD040341728F0C954DF4FA9
:105530001882C75BD040CB54DF4F5881C55BD04049
:10554000C954DF4F6881C75BD040562BCB54DF4F27
:105550005883C55BD040CA54DF4F7881C65BD040CA
:10556000CD55DF4F7883C35AD040CC56DF4F88816A
:10557000C459D040C456DF4F9881CC59D040890FD0
:10558000CC55DF4F8883C45AD040CB54DF4F88813D
:10559000C55BD040CC55DF4F0881C45AD040800F46
:1055A000CC55DF4F8883C45AD040C356DF4F188193
:1055B000CD59D0401FA7C256DF4F2881CE59D040C9
:1055C00028ABC156DF4F3881CF59D04039ABC056D8
:1055D000DF4F4881C05AD0404AABCF55DF4F58818A
:1055E000C15AD0405BABCE55DF4F6881C25AD04024
:1055F0006CABCD55DF4F7881C35AD0407DABCC55D5
:10560000DF4F8881C45AD0408EAB8981082F10E0CB
:1056100020E030E040E050E060E070E00FA318A729
:1056200029A73AA74BA75CA76DA77EA71FA52FA107
:10563000120FC854DF4F1883C85BD04031E0C0540C
:10564000DF4F3883C05CD040C854DF4F4881C85B0F
:10565000D0405FA5451728F0C054DF4F1882C05CCA
:10566000D04068A978A5670FC754DF4F6883C95B2E
:10567000D04081E0CF53DF4F8883C15CD040C75416
:10568000DF4F9881C95BD04008A9901728F0CF530D
:10569000DF4F1882C15CD040C054DF4F1881C05C1E
:1056A000D040C754DF4F2881C95BD040120FCE5382
:1056B000DF4F1883C25CD04031E0CD53DF4F3883D9
:1056C000C35CD040CE53DF4F4881C25CD040C7544A
:1056D000DF4F5881C95BD040451728F0CD53DF4FCD
:1056E0001882C35CD040CF53DF4F6881C15CD0408B
:1056F000CD53DF4F7881C35CD040672BCF53DF4F52
:105700006883C15CD040CE53DF4F8881C25CD040FB
:10571000C754DF4F8883C95BD04099A909A5900F72
:10572000C654DF4F9883CA5BD04011E0CC53DF4FA3
:105730001883C45CD040C654DF4F2881CA5BD04078
:1057400039A9231728F0CC53DF4F1882C45CD0400E
:10575000CF53DF4F4881C15CD040C654DF4F5881E2
:10576000CA5BD040450FCB53DF4F4883C55CD04068
:1057700061E0CA53DF4F6883C65CD040CB53DF4F34
:105780007881C55CD040C654DF4F8881CA5BD04069
:10579000781728F0CA53DF4F1882C65CD040CC532C
:1057A000DF4F9881C45CD040CA53DF4F0881C65C8C
:1057B000D040902BCC53DF4F9883C45CD040CB5368
:1057C000DF4F1881C55CD040C654DF4F1883CA5BD9
:1057D000D0402AA93AA5230FC554DF4F2883CB5BBD
:1057E000D04041E0C953DF4F4883C75CD040C55427
:1057F000DF4F5881CB5BD0406AA9561728F0C953B8
:10580000DF4F1882C75CD040CC53DF4F7881C45C37
:10581000D040C554DF4F8881CB5BD040780FC85350
:10582000DF4F7883C85CD04091E0C753DF4F988347
:10583000C95CD040C853DF4F0881C85CD040C55414
:10584000DF4F1881CB5BD040011728F0C753DF4FE3
:105850001882C95CD040C953DF4F2881C75CD04053
:10586000C753DF4F3881C95CD040232BC953DF4F6A
:105870002883C75CD040C853DF4F4881C85CD04004
:10588000C554DF4F4883CB5BD0405BA96BA5560F57
:10589000C454DF4F5883CC5BD04071E0C653DF4F18
:1058A0007883CA5CD040C454DF4F8881CC5BD04041
:1058B0009BA9891728F0C653DF4F1882CA5CD040D5
:1058C000C953DF4F0881C75CD040C454DF4F1881F3
:1058D000CC5BD040010FC553DF4F0883CB5CD04079
:1058E00021E0C453DF4F2883CC5CD040C553DF4F49
:1058F0003881CB5CD040C454DF4F4881CC5BD04072
:10590000341728F0C453DF4F1882CC5CD040C65304
:10591000DF4F5881CA5CD040C453DF4F6881CC5CF4
:10592000D040562BC653DF4F5883CA5CD040C55376
:10593000DF4F7881CB5CD040C454DF4F7883CC5BA1
:10594000D0408CA99CA5890FC354DF4F8883CD5BC1
:10595000D04001E0C353DF4F0883CD5CD040C35437
:10596000DF4F1881CD5BD0402CA9121728F0C3530C
:10597000DF4F1882CD5CD040C653DF4F3881CA5C00
:10598000D040C354DF4F4881CD5BD040340FC25369
:10599000DF4F3883CE5CD04051E0C153DF4F588396
:1059A000CF5CD040C253DF4F6881CE5CD040C3543F
:1059B000DF4F7881CD5BD040671728F0C153DF4FB0
:1059C0001882CF5CD040C353DF4F8881CD5CD0407C
:1059D000C153DF4F9881CF5CD040892BC353DF4F39
:1059E0008883CD5CD040C253DF4F0881CE5CD0406D
:1059F000C354DF4F0883CD5BD0401DA92DA5120FE6
:105A0000C254DF4F1883CE5BD04031E0C053DF4F2C
:105A10003883C05DD040C254DF4F4881CE5BD04058
:105A20005DA9451728F0C053DF4F1882C05DD040F4
:105A3000C353DF4F6881CD5CD040C254DF4F7881C3
:105A4000CE5BD040670FCF52DF4F6883C15DD0403F
:105A500081E0CE52DF4F8883C25DD040CF52DF4F0E
:105A60009881C15DD040C254DF4F0881CE5BD040E9
:105A7000901728F0CE52DF4F1882C25DD040C0533D
:105A8000DF4F1881C05DD040CE52DF4F2881C25D0C
:105A9000D040122BC053DF4F1883C05DD040CF528F
:105AA000DF4F3881C15DD040C254DF4F3883CE5BB9
:105AB000D0404EA95EA5450FC154DF4F4883CF5B50
:105AC000D040C053DF4F8881C05DD040C154DF4F0C
:105AD0006881CF5BD040860FC154DF4F8883CF5B96
