:100000000C942A000C943F000C943F000C943F0089
:100010000C943F000C943F000C943F000C943F0064
:100020000C943F000C943F000C943F000C943F0054
:100030000C943F000C943F000C943F000C943F0044
:100040000C943F000C943F000C943F000C943F0034
:100050000C943F0011241FBECFE5D8E0DEBFCDBF1A
:1000600010E0A0E6B0E0EEE7F1E002C005900D92EE
:10007000AE36B107D9F70E948C000C94BD000C94E9
:1000800000002AB128612AB920B5266820BDDC010C
:10009000CB01880F991FAA1FBB1F880F991FAA1F8A
:1000A000BB1F9C01AD01220F331F441F551F220FA0
:1000B000331F441F551F60E072E18AE790E00E9401
:1000C0009B00822F815089B9DA01C9010197A109EA
:1000D000B109892F9A2FAB2FBB2780BD08955F9B55
:1000E000FECF8CB108955D9BFECF8CB908951F9310
:1000F000CF93DF93EC018881882351F010E00E94B8
:1001000073001F5FFE01E10FF11D80818111F7CFA8
:10011000DF91CF911F91089560E875E280E090E053
:100120000E94410080E690E00E9477000E946F00EC
:100130000E947300FBCFA1E21A2EAA1BBB1BFD017C
:100140000DC0AA1FBB1FEE1FFF1FA217B307E407B6
:10015000F50720F0A21BB30BE40BF50B661F771F0E
:10016000881F991F1A9469F76095709580959095EE
:0E0170009B01AC01BD01CF010895F894FFCFB3
:0E017E000A09204563686F20546573742000E1
:00000001FF
