:100000000C942A000C943F000C943F000C943F0089
:100010000C943F000C943F000C943F000C943F0064
:100020000C943F000C943F000C943F000C943F0054
:100030000C943F000C943F000C943F000C943F0044
:100040000C943F000C943F000C943F000C943F0034
:100050000C943F0011241FBECFE5D8E0DEBFCDBF1A
:1000600010E0A0E6B0E0EAE2F9E002C005900D92EF
:10007000AC36B107D9F70E9445040C9493040C9454
:100080000000DF93CF9300D000D0CDB7DEB78983D7
:100090006A838981282F30E03C832B838B819C816C
:1000A00082349105D9F02B813C812334310534F41D
:1000B0008B819C818134910561F01EC02B813C8134
:1000C0002334310581F08B819C818434910581F04A
:1000D00013C0EAE3F0E08A8180830EC0E7E3F0E03A
:1000E0008A81808309C0E4E3F0E08A81808304C0D0
:1000F000E1E3F0E08A8180830F900F900F900F90E2
:10010000CF91DF910895DF93CF9300D000D0CDB78A
:10011000DEB789836A838981282F30E03C832B8373
:100120008B819C8182349105D9F02B813C812334D1
:10013000310534F48B819C818134910561F01EC0BE
:100140002B813C812334310581F08B819C81843467
:10015000910581F013C0EBE3F0E08A8180830EC04B
:10016000E8E3F0E08A81808309C0E5E3F0E08A817A
:10017000808304C0E2E3F0E08A8180830F900F90D7
:100180000F900F90CF91DF910895DF93CF9300D020
:1001900000D00F92CDB7DEB789836A834B83898104
:1001A000282F30E03D832C838C819D818234910502
:1001B00009F448C02C813D812334310534F48C810D
:1001C0009D818134910571F0CBC02C813D81233418
:1001D000310509F467C08C819D818434910509F44F
:1001E00091C0BEC08B818130A1F4AAE3B0E0EAE304
:1001F000F0E08081482F8A81282F30E081E090E074
:10020000022E02C0880F991F0A94E2F7842B8C9368
:10021000A7C08B81882309F0A3C0AAE3B0E0EAE37A
:10022000F0E08081482F8A81282F30E081E090E043
:10023000022E02C0880F991F0A94E2F7809584234A
:100240008C938EC08B818130A1F4A7E3B0E0E7E30B
:10025000F0E08081482F8A81282F30E081E090E013
:10026000022E02C0880F991F0A94E2F7842B8C9308
:1002700077C08B81882309F073C0A7E3B0E0E7E380
:10028000F0E08081482F8A81282F30E081E090E0E3
:10029000022E02C0880F991F0A94E2F780958423EA
:1002A0008C935EC08B818130A1F4A4E3B0E0E4E3E1
:1002B000F0E08081482F8A81282F30E081E090E0B3
:1002C000022E02C0880F991F0A94E2F7842B8C93A8
:1002D00047C08B81882309F043C0A4E3B0E0E4E386
:1002E000F0E08081482F8A81282F30E081E090E083
:1002F000022E02C0880F991F0A94E2F7809584238A
:100300008C932EC08B818130A1F4A1E3B0E0E1E3B6
:10031000F0E08081482F8A81282F30E081E090E052
:10032000022E02C0880F991F0A94E2F7842B8C9347
:1003300017C08B818823A1F4A1E3B0E0E1E3F0E0F2
:100340008081482F8A81282F30E081E090E0022EC2
:1003500002C0880F991F0A94E2F7809584238C933A
:100360000F900F900F900F900F90CF91DF91089505
:10037000DF93CF9300D000D00F92CDB7DEB7898343
:100380006A834B838981282F30E03D832C838C81C5
:100390009D818234910509F448C02C813D8123342C
:1003A000310534F48C819D818134910571F0CBC08D
:1003B0002C813D812334310509F467C08C819D81F6
:1003C0008434910509F491C0BEC08B818130A1F4C1
:1003D000ABE3B0E0EBE3F0E08081482F8A81282F87
:1003E00030E081E090E0022E02C0880F991F0A944D
:1003F000E2F7842B8C93A7C08B81882309F0A3C0DC
:10040000ABE3B0E0EBE3F0E08081482F8A81282F56
:1004100030E081E090E0022E02C0880F991F0A941C
:10042000E2F7809584238C938EC08B818130A1F478
:10043000A8E3B0E0E8E3F0E08081482F8A81282F2C
:1004400030E081E090E0022E02C0880F991F0A94EC
:10045000E2F7842B8C9377C08B81882309F073C0DB
:10046000A8E3B0E0E8E3F0E08081482F8A81282FFC
:1004700030E081E090E0022E02C0880F991F0A94BC
:10048000E2F7809584238C935EC08B818130A1F448
:10049000A5E3B0E0E5E3F0E08081482F8A81282FD2
:1004A00030E081E090E0022E02C0880F991F0A948C
:1004B000E2F7842B8C9347C08B81882309F043C0DB
:1004C000A5E3B0E0E5E3F0E08081482F8A81282FA2
:1004D00030E081E090E0022E02C0880F991F0A945C
:1004E000E2F7809584238C932EC08B818130A1F418
:1004F000A2E3B0E0E2E3F0E08081482F8A81282F78
:1005000030E081E090E0022E02C0880F991F0A942B
:10051000E2F7842B8C9317C08B818823A1F4A2E38C
:10052000B0E0E2E3F0E08081482F8A81282F30E0BC
:1005300081E090E0022E02C0880F991F0A94E2F732
:10054000809584238C930F900F900F900F900F90B5
:10055000CF91DF910895DF93CF9300D000D0CDB736
:10056000DEB78A838A81282F30E03C832B838B81FE
:100570009C8182349105D9F02B813C812334310553
:1005800034F48B819C818134910561F01EC02B81F4
:100590003C812334310581F08B819C818434910529
:1005A00081F013C0E9E3F0E0808189830EC0E6E3C7
:1005B000F0E08081898309C0E3E3F0E080818983F2
:1005C00004C0E0E3F0E08081898389810F900F907F
:1005D0000F900F90CF91DF910895DF93CF9300D0CC
:1005E00000D00F92CDB7DEB78A836B838A81282F24
:1005F00030E03D832C834C815D814234510541F1D3
:100600008C819D818334910534F42C813D8121348A
:10061000310561F052C04C815D814334510551F187
:100620008C819D8184349105B9F147C0E9E3F0E004
:100630008081282F30E08B81882F90E0A90102C0B3
:10064000559547958A95E2F7CA018170898335C02F
:10065000E6E3F0E08081282F30E08B81882F90E066
:10066000A90102C0559547958A95E2F7CA018170A4
:10067000898323C0E3E3F0E08081282F30E08B8181
:10068000882F90E0A90102C0559547958A95E2F719
:10069000CA018170898311C0E0E3F0E08081282FD6
:1006A00030E08B81882F90E0A90102C055954795D5
:1006B0008A95E2F7CA018170898389810F900F9032
:1006C0000F900F900F90CF91DF910895DF93CF930C
:1006D000CDB7DEB784E460E040E00E94C50084E46A
:1006E00061E041E00E94C500AAE2B0E0EAE2F0E089
:1006F000808188608C93AAE2B0E0EAE2F0E0808139
:1007000080618C93A0E4B0E0E0E4F0E0808182605E
:100710008C93A0E4B0E0E0E4F0E0808184608C930E
:10072000E9E2F0E08EE48083E0E4F0E01082CF9133
:10073000DF910895DF93CF930F92CDB7DEB7898312
:10074000EBE2F0E08081829586958770882F90E0BB
:10075000817090700097A1F3ECE2F0E089818083D2
:100760000F90CF91DF910895DF93CF93CDB7DEB790
:10077000EBE2F0E080818823DCF7ABE2B0E0EBE273
:10078000F0E0808180688C93ECE2F0E08081CF9192
:10079000DF910895DF93CF9300D00F92CDB7DEB7EE
:1007A0009B838A8319820EC08981282F30E08A8139
:1007B0009B81FC01E20FF31F80810E949A038981D3
:1007C0008F5F89838981282F30E08A819B81FC019A
:1007D000E20FF31F8081882339F78AE00E949A0391
:1007E0000F900F900F90CF91DF9108950F931F936B
:1007F000DF93CF93CDB7DEB762970FB6F894DEBF25
:100800000FBECDBF998B888B8AE0FE013696DF0143
:10081000982F1D929A95E9F71D8281E08C831B82A7
:100820000FC08D81082F10E00E94B403282FCE0145
:100830000696FC01E00FF11F20838D818F5F8D8371
:100840000E94B403882369F7888999899E012A5FE9
:100850003F4FB90142E050E00E9486049A838983A9
:1008600089819A81009719F4AC81AA8B02C0BB815F
:10087000BA8B8A8962960FB6F894DEBF0FBECDBFE1
:10088000CF91DF911F910F910895DF93CF93CDB753
:10089000DEB763970FB6F894DEBF0FBECDBFCE01B3
:1008A0000496988B8F87E0E6F0E0FA8BE98BF7E00F
:1008B000FB8BE989FA89008089899A8901969A8B4C
:1008C000898BEF85F88900828F8598890196988BAE
:1008D0008F879B8991509B8BEB89EE2351F78091F9
:1008E000670090916800A0916900B0916A008B87C1
:1008F0009C87AD87BE871B821A820E94660380E0B8
:100900000E949A0381E00E949A03F9CFFB01DC0167
:1009100004C08D910190801921F441505040C8F7D6
:0A092000881B990B0895F894FFCF8F
:0C092A0048616E6E6F6E0068616E000028
:00000001FF
